{
  "_format": "hh-sol-artifact-1",
  "contractName": "TicketSea",
  "sourceName": "contracts/TicketSea.sol",
  "abi": [
    {
      "inputs": [
        {
          "internalType": "uint256",
          "name": "_maxSupply",
          "type": "uint256"
        }
      ],
      "stateMutability": "nonpayable",
      "type": "constructor"
    },
    {
      "anonymous": false,
      "inputs": [
        {
          "indexed": true,
          "internalType": "address",
          "name": "owner",
          "type": "address"
        },
        {
          "indexed": true,
          "internalType": "address",
          "name": "approved",
          "type": "address"
        },
        {
          "indexed": true,
          "internalType": "uint256",
          "name": "tokenId",
          "type": "uint256"
        }
      ],
      "name": "Approval",
      "type": "event"
    },
    {
      "anonymous": false,
      "inputs": [
        {
          "indexed": true,
          "internalType": "address",
          "name": "owner",
          "type": "address"
        },
        {
          "indexed": true,
          "internalType": "address",
          "name": "operator",
          "type": "address"
        },
        {
          "indexed": false,
          "internalType": "bool",
          "name": "approved",
          "type": "bool"
        }
      ],
      "name": "ApprovalForAll",
      "type": "event"
    },
    {
      "anonymous": false,
      "inputs": [
        {
          "indexed": true,
          "internalType": "address",
          "name": "from",
          "type": "address"
        },
        {
          "indexed": true,
          "internalType": "address",
          "name": "to",
          "type": "address"
        },
        {
          "indexed": true,
          "internalType": "uint256",
          "name": "tokenId",
          "type": "uint256"
        }
      ],
      "name": "Transfer",
      "type": "event"
    },
    {
      "inputs": [
        {
          "internalType": "address",
          "name": "to",
          "type": "address"
        },
        {
          "internalType": "uint256",
          "name": "tokenId",
          "type": "uint256"
        }
      ],
      "name": "approve",
      "outputs": [],
      "stateMutability": "nonpayable",
      "type": "function"
    },
    {
      "inputs": [
        {
          "internalType": "address",
          "name": "owner",
          "type": "address"
        }
      ],
      "name": "balanceOf",
      "outputs": [
        {
          "internalType": "uint256",
          "name": "",
          "type": "uint256"
        }
      ],
      "stateMutability": "view",
      "type": "function"
    },
    {
      "inputs": [
        {
          "internalType": "uint256",
          "name": "tokenId",
          "type": "uint256"
        }
      ],
      "name": "getApproved",
      "outputs": [
        {
          "internalType": "address",
          "name": "",
          "type": "address"
        }
      ],
      "stateMutability": "view",
      "type": "function"
    },
    {
      "inputs": [
        {
          "internalType": "uint256",
          "name": "tokenId",
          "type": "uint256"
        }
      ],
      "name": "image",
      "outputs": [
        {
          "internalType": "string",
          "name": "",
          "type": "string"
        }
      ],
      "stateMutability": "view",
      "type": "function"
    },
    {
      "inputs": [
        {
          "internalType": "address",
          "name": "owner",
          "type": "address"
        },
        {
          "internalType": "address",
          "name": "operator",
          "type": "address"
        }
      ],
      "name": "isApprovedForAll",
      "outputs": [
        {
          "internalType": "bool",
          "name": "",
          "type": "bool"
        }
      ],
      "stateMutability": "view",
      "type": "function"
    },
    {
      "inputs": [],
      "name": "maxSupply",
      "outputs": [
        {
          "internalType": "uint256",
          "name": "",
          "type": "uint256"
        }
      ],
      "stateMutability": "view",
      "type": "function"
    },
    {
      "inputs": [
        {
          "internalType": "string",
          "name": "eventName",
          "type": "string"
        },
        {
          "internalType": "string",
          "name": "refCod",
          "type": "string"
        }
      ],
      "name": "mint",
      "outputs": [],
      "stateMutability": "nonpayable",
      "type": "function"
    },
    {
      "inputs": [],
      "name": "name",
      "outputs": [
        {
          "internalType": "string",
          "name": "",
          "type": "string"
        }
      ],
      "stateMutability": "view",
      "type": "function"
    },
    {
      "inputs": [
        {
          "internalType": "uint256",
          "name": "tokenId",
          "type": "uint256"
        }
      ],
      "name": "ownerOf",
      "outputs": [
        {
          "internalType": "address",
          "name": "",
          "type": "address"
        }
      ],
      "stateMutability": "view",
      "type": "function"
    },
    {
      "inputs": [
        {
          "internalType": "address",
          "name": "from",
          "type": "address"
        },
        {
          "internalType": "address",
          "name": "to",
          "type": "address"
        },
        {
          "internalType": "uint256",
          "name": "tokenId",
          "type": "uint256"
        }
      ],
      "name": "safeTransferFrom",
      "outputs": [],
      "stateMutability": "nonpayable",
      "type": "function"
    },
    {
      "inputs": [
        {
          "internalType": "address",
          "name": "from",
          "type": "address"
        },
        {
          "internalType": "address",
          "name": "to",
          "type": "address"
        },
        {
          "internalType": "uint256",
          "name": "tokenId",
          "type": "uint256"
        },
        {
          "internalType": "bytes",
          "name": "_data",
          "type": "bytes"
        }
      ],
      "name": "safeTransferFrom",
      "outputs": [],
      "stateMutability": "nonpayable",
      "type": "function"
    },
    {
      "inputs": [
        {
          "internalType": "address",
          "name": "operator",
          "type": "address"
        },
        {
          "internalType": "bool",
          "name": "approved",
          "type": "bool"
        }
      ],
      "name": "setApprovalForAll",
      "outputs": [],
      "stateMutability": "nonpayable",
      "type": "function"
    },
    {
      "inputs": [
        {
          "internalType": "bytes4",
          "name": "_interfaceId",
          "type": "bytes4"
        }
      ],
      "name": "supportsInterface",
      "outputs": [
        {
          "internalType": "bool",
          "name": "",
          "type": "bool"
        }
      ],
      "stateMutability": "view",
      "type": "function"
    },
    {
      "inputs": [],
      "name": "symbol",
      "outputs": [
        {
          "internalType": "string",
          "name": "",
          "type": "string"
        }
      ],
      "stateMutability": "view",
      "type": "function"
    },
    {
      "inputs": [
        {
          "internalType": "uint256",
          "name": "index",
          "type": "uint256"
        }
      ],
      "name": "tokenByIndex",
      "outputs": [
        {
          "internalType": "uint256",
          "name": "",
          "type": "uint256"
        }
      ],
      "stateMutability": "view",
      "type": "function"
    },
    {
      "inputs": [
        {
          "internalType": "uint256",
          "name": "",
          "type": "uint256"
        }
      ],
      "name": "tokenMetadata",
      "outputs": [
        {
          "internalType": "address",
          "name": "eventOwner",
          "type": "address"
        },
        {
          "internalType": "string",
          "name": "eventName",
          "type": "string"
        },
        {
          "internalType": "string",
          "name": "refCod",
          "type": "string"
        }
      ],
      "stateMutability": "view",
      "type": "function"
    },
    {
      "inputs": [
        {
          "internalType": "address",
          "name": "owner",
          "type": "address"
        },
        {
          "internalType": "uint256",
          "name": "index",
          "type": "uint256"
        }
      ],
      "name": "tokenOfOwnerByIndex",
      "outputs": [
        {
          "internalType": "uint256",
          "name": "",
          "type": "uint256"
        }
      ],
      "stateMutability": "view",
      "type": "function"
    },
    {
      "inputs": [
        {
          "internalType": "uint256",
          "name": "tokenId",
          "type": "uint256"
        }
      ],
      "name": "tokenURI",
      "outputs": [
        {
          "internalType": "string",
          "name": "",
          "type": "string"
        }
      ],
      "stateMutability": "view",
      "type": "function"
    },
    {
      "inputs": [],
      "name": "totalSupply",
      "outputs": [
        {
          "internalType": "uint256",
          "name": "",
          "type": "uint256"
        }
      ],
      "stateMutability": "view",
      "type": "function"
    },
    {
      "inputs": [
        {
          "internalType": "address",
          "name": "from",
          "type": "address"
        },
        {
          "internalType": "address",
          "name": "to",
          "type": "address"
        },
        {
          "internalType": "uint256",
          "name": "tokenId",
          "type": "uint256"
        }
      ],
      "name": "transferFrom",
      "outputs": [],
      "stateMutability": "nonpayable",
      "type": "function"
    }
  ],
  "bytecode": "0x60806040523480156200001157600080fd5b506040516200401f3803806200401f8339818101604052810190620000379190620001ac565b6040518060400160405280600981526020017f5469636b657453656100000000000000000000000000000000000000000000008152506040518060400160405280600381526020017f54534100000000000000000000000000000000000000000000000000000000008152508160009080519060200190620000bb929190620000e5565b508060019080519060200190620000d4929190620000e5565b50505080600c819055505062000261565b828054620000f390620001e2565b90600052602060002090601f01602090048101928262000117576000855562000163565b82601f106200013257805160ff191683800117855562000163565b8280016001018555821562000163579182015b828111156200016257825182559160200191906001019062000145565b5b50905062000172919062000176565b5090565b5b808211156200019157600081600090555060010162000177565b5090565b600081519050620001a68162000247565b92915050565b600060208284031215620001bf57600080fd5b6000620001cf8482850162000195565b91505092915050565b6000819050919050565b60006002820490506001821680620001fb57607f821691505b6020821081141562000212576200021162000218565b5b50919050565b7f4e487b7100000000000000000000000000000000000000000000000000000000600052602260045260246000fd5b6200025281620001d8565b81146200025e57600080fd5b50565b613dae80620002716000396000f3fe608060405234801561001057600080fd5b506004361061012c5760003560e01c80636914db60116100ad578063b88d4fde11610071578063b88d4fde14610369578063c79178c614610385578063c87b56dd146103b5578063d5abeb01146103e5578063e985e9c5146104035761012c565b80636914db60146102b157806370a08231146102e35780638aa0fdad1461031357806395d89b411461032f578063a22cb4651461034d5761012c565b806323b872dd116100f457806323b872dd146101e95780632f745c591461020557806342842e0e146102355780634f6ccce7146102515780636352211e146102815761012c565b806301ffc9a71461013157806306fdde0314610161578063081812fc1461017f578063095ea7b3146101af57806318160ddd146101cb575b600080fd5b61014b60048036038101906101469190612824565b610433565b6040516101589190612fcf565b60405180910390f35b610169610445565b6040516101769190612fea565b60405180910390f35b610199600480360381019061019491906128e2565b6104d7565b6040516101a69190612f23565b60405180910390f35b6101c960048036038101906101c491906127e8565b61055c565b005b6101d3610674565b6040516101e0919061322c565b60405180910390f35b61020360048036038101906101fe91906126e2565b610681565b005b61021f600480360381019061021a91906127e8565b6106e1565b60405161022c919061322c565b60405180910390f35b61024f600480360381019061024a91906126e2565b610786565b005b61026b600480360381019061026691906128e2565b6107a6565b604051610278919061322c565b60405180910390f35b61029b600480360381019061029691906128e2565b61083d565b6040516102a89190612f23565b60405180910390f35b6102cb60048036038101906102c691906128e2565b6108ef565b6040516102da93929190612f8a565b60405180910390f35b6102fd60048036038101906102f8919061267d565b610a49565b60405161030a919061322c565b60405180910390f35b61032d60048036038101906103289190612876565b610b01565b005b610337610c57565b6040516103449190612fea565b60405180910390f35b610367600480360381019061036291906127ac565b610ce9565b005b610383600480360381019061037e9190612731565b610e6a565b005b61039f600480360381019061039a91906128e2565b610ecc565b6040516103ac9190612fea565b60405180910390f35b6103cf60048036038101906103ca91906128e2565b610f12565b6040516103dc9190612fea565b60405180910390f35b6103ed61104c565b6040516103fa919061322c565b60405180910390f35b61041d600480360381019061041891906126a6565b611052565b60405161042a9190612fcf565b60405180910390f35b600061043e826110e6565b9050919050565b606060008054610454906134f1565b80601f0160208091040260200160405190810160405280929190818152602001828054610480906134f1565b80156104cd5780601f106104a2576101008083540402835291602001916104cd565b820191906000526020600020905b8154815290600101906020018083116104b057829003601f168201915b5050505050905090565b60006104e282611160565b610521576040517f08c379a00000000000000000000000000000000000000000000000000000000081526004016105189061316c565b60405180910390fd5b6004600083815260200190815260200160002060009054906101000a900473ffffffffffffffffffffffffffffffffffffffff169050919050565b60006105678261083d565b90508073ffffffffffffffffffffffffffffffffffffffff168373ffffffffffffffffffffffffffffffffffffffff1614156105d8576040517f08c379a00000000000000000000000000000000000000000000000000000000081526004016105cf906131cc565b60405180910390fd5b8073ffffffffffffffffffffffffffffffffffffffff166105f76111cc565b73ffffffffffffffffffffffffffffffffffffffff1614806106265750610625816106206111cc565b611052565b5b610665576040517f08c379a000000000000000000000000000000000000000000000000000000000815260040161065c906130ec565b60405180910390fd5b61066f83836111d4565b505050565b6000600880549050905090565b61069261068c6111cc565b8261128d565b6106d1576040517f08c379a00000000000000000000000000000000000000000000000000000000081526004016106c8906131ec565b60405180910390fd5b6106dc83838361136b565b505050565b60006106ec83610a49565b821061072d576040517f08c379a00000000000000000000000000000000000000000000000000000000081526004016107249061302c565b60405180910390fd5b600660008473ffffffffffffffffffffffffffffffffffffffff1673ffffffffffffffffffffffffffffffffffffffff168152602001908152602001600020600083815260200190815260200160002054905092915050565b6107a183838360405180602001604052806000815250610e6a565b505050565b60006107b0610674565b82106107f1576040517f08c379a00000000000000000000000000000000000000000000000000000000081526004016107e89061320c565b60405180910390fd5b6008828154811061082b577f4e487b7100000000000000000000000000000000000000000000000000000000600052603260045260246000fd5b90600052602060002001549050919050565b6000806002600084815260200190815260200160002060009054906101000a900473ffffffffffffffffffffffffffffffffffffffff169050600073ffffffffffffffffffffffffffffffffffffffff168173ffffffffffffffffffffffffffffffffffffffff1614156108e6576040517f08c379a00000000000000000000000000000000000000000000000000000000081526004016108dd9061312c565b60405180910390fd5b80915050919050565b600d6020528060005260406000206000915090508060000160009054906101000a900473ffffffffffffffffffffffffffffffffffffffff1690806001018054610938906134f1565b80601f0160208091040260200160405190810160405280929190818152602001828054610964906134f1565b80156109b15780601f10610986576101008083540402835291602001916109b1565b820191906000526020600020905b81548152906001019060200180831161099457829003601f168201915b5050505050908060020180546109c6906134f1565b80601f01602080910402602001604051908101604052809291908181526020018280546109f2906134f1565b8015610a3f5780601f10610a1457610100808354040283529160200191610a3f565b820191906000526020600020905b815481529060010190602001808311610a2257829003601f168201915b5050505050905083565b60008073ffffffffffffffffffffffffffffffffffffffff168273ffffffffffffffffffffffffffffffffffffffff161415610aba576040517f08c379a0000000000000000000000000000000000000000000000000000000008152600401610ab19061310c565b60405180910390fd5b600360008373ffffffffffffffffffffffffffffffffffffffff1673ffffffffffffffffffffffffffffffffffffffff168152602001908152602001600020549050919050565b6000610b0d600a6115c7565b9050600c548110610b53576040517f08c379a0000000000000000000000000000000000000000000000000000000008152600401610b4a9061300c565b60405180910390fd5b610b5b61246a565b33816000019073ffffffffffffffffffffffffffffffffffffffff16908173ffffffffffffffffffffffffffffffffffffffff168152505083816020018190525082816040018190525080600d600084815260200190815260200160002060008201518160000160006101000a81548173ffffffffffffffffffffffffffffffffffffffff021916908373ffffffffffffffffffffffffffffffffffffffff1602179055506020820151816001019080519060200190610c1c9291906124a1565b506040820151816002019080519060200190610c399291906124a1565b50905050610c47600a6115d5565b610c5133836115eb565b50505050565b606060018054610c66906134f1565b80601f0160208091040260200160405190810160405280929190818152602001828054610c92906134f1565b8015610cdf5780601f10610cb457610100808354040283529160200191610cdf565b820191906000526020600020905b815481529060010190602001808311610cc257829003601f168201915b5050505050905090565b610cf16111cc565b73ffffffffffffffffffffffffffffffffffffffff168273ffffffffffffffffffffffffffffffffffffffff161415610d5f576040517f08c379a0000000000000000000000000000000000000000000000000000000008152600401610d56906130ac565b60405180910390fd5b8060056000610d6c6111cc565b73ffffffffffffffffffffffffffffffffffffffff1673ffffffffffffffffffffffffffffffffffffffff16815260200190815260200160002060008473ffffffffffffffffffffffffffffffffffffffff1673ffffffffffffffffffffffffffffffffffffffff16815260200190815260200160002060006101000a81548160ff0219169083151502179055508173ffffffffffffffffffffffffffffffffffffffff16610e196111cc565b73ffffffffffffffffffffffffffffffffffffffff167f17307eab39ab6107e8899845ad3d59bd9653f200f220920489ca2b5937696c3183604051610e5e9190612fcf565b60405180910390a35050565b610e7b610e756111cc565b8361128d565b610eba576040517f08c379a0000000000000000000000000000000000000000000000000000000008152600401610eb1906131ec565b60405180910390fd5b610ec684848484611609565b50505050565b60606000610ed8611665565b90506000610ee5846116a2565b90508181604051602001610efa929190612e0b565b60405160208183030381529060405292505050919050565b6060610f1d82611160565b610f5c576040517f08c379a0000000000000000000000000000000000000000000000000000000008152600401610f53906131ac565b60405180910390fd5b6000610f6783610ecc565b90506000611021610fc3600d600087815260200190815260200160002060000160009054906101000a900473ffffffffffffffffffffffffffffffffffffffff1673ffffffffffffffffffffffffffffffffffffffff16611752565b600d6000878152602001908152602001600020600101600d6000888152602001908152602001600020600201610ffa600c54611752565b60405160200161100d9493929190612e3a565b6040516020818303038152906040526118ff565b9050806040516020016110349190612f01565b60405160208183030381529060405292505050919050565b600c5481565b6000600560008473ffffffffffffffffffffffffffffffffffffffff1673ffffffffffffffffffffffffffffffffffffffff16815260200190815260200160002060008373ffffffffffffffffffffffffffffffffffffffff1673ffffffffffffffffffffffffffffffffffffffff16815260200190815260200160002060009054906101000a900460ff16905092915050565b60007f780e9d63000000000000000000000000000000000000000000000000000000007bffffffffffffffffffffffffffffffffffffffffffffffffffffffff1916827bffffffffffffffffffffffffffffffffffffffffffffffffffffffff19161480611159575061115882611aaa565b5b9050919050565b60008073ffffffffffffffffffffffffffffffffffffffff166002600084815260200190815260200160002060009054906101000a900473ffffffffffffffffffffffffffffffffffffffff1673ffffffffffffffffffffffffffffffffffffffff1614159050919050565b600033905090565b816004600083815260200190815260200160002060006101000a81548173ffffffffffffffffffffffffffffffffffffffff021916908373ffffffffffffffffffffffffffffffffffffffff160217905550808273ffffffffffffffffffffffffffffffffffffffff166112478361083d565b73ffffffffffffffffffffffffffffffffffffffff167f8c5be1e5ebec7d5bd14f71427d1e84f3dd0314c0f7b2291e5b200ac8c7c3b92560405160405180910390a45050565b600061129882611160565b6112d7576040517f08c379a00000000000000000000000000000000000000000000000000000000081526004016112ce906130cc565b60405180910390fd5b60006112e28361083d565b90508073ffffffffffffffffffffffffffffffffffffffff168473ffffffffffffffffffffffffffffffffffffffff16148061135157508373ffffffffffffffffffffffffffffffffffffffff16611339846104d7565b73ffffffffffffffffffffffffffffffffffffffff16145b8061136257506113618185611052565b5b91505092915050565b8273ffffffffffffffffffffffffffffffffffffffff1661138b8261083d565b73ffffffffffffffffffffffffffffffffffffffff16146113e1576040517f08c379a00000000000000000000000000000000000000000000000000000000081526004016113d89061318c565b60405180910390fd5b600073ffffffffffffffffffffffffffffffffffffffff168273ffffffffffffffffffffffffffffffffffffffff161415611451576040517f08c379a00000000000000000000000000000000000000000000000000000000081526004016114489061308c565b60405180910390fd5b61145c838383611b8c565b6114676000826111d4565b6001600360008573ffffffffffffffffffffffffffffffffffffffff1673ffffffffffffffffffffffffffffffffffffffff16815260200190815260200160002060008282546114b79190613407565b925050819055506001600360008473ffffffffffffffffffffffffffffffffffffffff1673ffffffffffffffffffffffffffffffffffffffff168152602001908152602001600020600082825461150e9190613326565b92505081905550816002600083815260200190815260200160002060006101000a81548173ffffffffffffffffffffffffffffffffffffffff021916908373ffffffffffffffffffffffffffffffffffffffff160217905550808273ffffffffffffffffffffffffffffffffffffffff168473ffffffffffffffffffffffffffffffffffffffff167fddf252ad1be2c89b69c2b068fc378daa952ba7f163c4a11628f55a4df523b3ef60405160405180910390a4505050565b600081600001549050919050565b6001816000016000828254019250508190555050565b611605828260405180602001604052806000815250611b9c565b5050565b61161484848461136b565b61162084848484611bf7565b61165f576040517f08c379a00000000000000000000000000000000000000000000000000000000081526004016116569061304c565b60405180910390fd5b50505050565b60606040518060400160405280601981526020017f68747470733a2f2f6170692e7469636b65745365612e696f2f00000000000000815250905090565b6060806116fa600d600085815260200190815260200160002060000160009054906101000a900473ffffffffffffffffffffffffffffffffffffffff1673ffffffffffffffffffffffffffffffffffffffff16611752565b600d6000858152602001908152602001600020600101600d600086815260200190815260200160002060020160405160200161173893929190612eaf565b604051602081830303815290604052905080915050919050565b6060600082141561179a576040518060400160405280600181526020017f300000000000000000000000000000000000000000000000000000000000000081525090506118fa565b600082905060005b600082146117cc5780806117b590613554565b915050600a826117c5919061337c565b91506117a2565b60008167ffffffffffffffff81111561180e577f4e487b7100000000000000000000000000000000000000000000000000000000600052604160045260246000fd5b6040519080825280601f01601f1916602001820160405280156118405781602001600182028036833780820191505090505b5090505b600085146118f3576001826118599190613407565b9150600a85611868919061359d565b60306118749190613326565b60f81b8183815181106118b0577f4e487b7100000000000000000000000000000000000000000000000000000000600052603260045260246000fd5b60200101907effffffffffffffffffffffffffffffffffffffffffffffffffffffffffffff1916908160001a905350600a856118ec919061337c565b9450611844565b8093505050505b919050565b606060008251141561192257604051806020016040528060008152509050611aa5565b6000604051806060016040528060408152602001613d3960409139905060006003600285516119519190613326565b61195b919061337c565b600461196791906133ad565b905060006020826119789190613326565b67ffffffffffffffff8111156119b7577f4e487b7100000000000000000000000000000000000000000000000000000000600052604160045260246000fd5b6040519080825280601f01601f1916602001820160405280156119e95781602001600182028036833780820191505090505b509050818152600183018586518101602084015b81831015611a64576003830192508251603f8160121c1685015160f81b8252600182019150603f81600c1c1685015160f81b8252600182019150603f8160061c1685015160f81b8252600182019150603f811685015160f81b8252600182019150506119fd565b600389510660018114611a7e5760028114611a8e57611a99565b613d3d60f01b6002830352611a99565b603d60f81b60018303525b50505050508093505050505b919050565b60007f80ac58cd000000000000000000000000000000000000000000000000000000007bffffffffffffffffffffffffffffffffffffffffffffffffffffffff1916827bffffffffffffffffffffffffffffffffffffffffffffffffffffffff19161480611b7557507f5b5e139f000000000000000000000000000000000000000000000000000000007bffffffffffffffffffffffffffffffffffffffffffffffffffffffff1916827bffffffffffffffffffffffffffffffffffffffffffffffffffffffff1916145b80611b855750611b8482611d8e565b5b9050919050565b611b97838383611df8565b505050565b611ba68383611f0c565b611bb36000848484611bf7565b611bf2576040517f08c379a0000000000000000000000000000000000000000000000000000000008152600401611be99061304c565b60405180910390fd5b505050565b6000611c188473ffffffffffffffffffffffffffffffffffffffff166120da565b15611d81578373ffffffffffffffffffffffffffffffffffffffff1663150b7a02611c416111cc565b8786866040518563ffffffff1660e01b8152600401611c639493929190612f3e565b602060405180830381600087803b158015611c7d57600080fd5b505af1925050508015611cae57506040513d601f19601f82011682018060405250810190611cab919061284d565b60015b611d31573d8060008114611cde576040519150601f19603f3d011682016040523d82523d6000602084013e611ce3565b606091505b50600081511415611d29576040517f08c379a0000000000000000000000000000000000000000000000000000000008152600401611d209061304c565b60405180910390fd5b805181602001fd5b63150b7a0260e01b7bffffffffffffffffffffffffffffffffffffffffffffffffffffffff1916817bffffffffffffffffffffffffffffffffffffffffffffffffffffffff191614915050611d86565b600190505b949350505050565b60007f01ffc9a7000000000000000000000000000000000000000000000000000000007bffffffffffffffffffffffffffffffffffffffffffffffffffffffff1916827bffffffffffffffffffffffffffffffffffffffffffffffffffffffff1916149050919050565b611e038383836120ed565b600073ffffffffffffffffffffffffffffffffffffffff168373ffffffffffffffffffffffffffffffffffffffff161415611e4657611e41816120f2565b611e85565b8173ffffffffffffffffffffffffffffffffffffffff168373ffffffffffffffffffffffffffffffffffffffff1614611e8457611e83838261213b565b5b5b600073ffffffffffffffffffffffffffffffffffffffff168273ffffffffffffffffffffffffffffffffffffffff161415611ec857611ec3816122a8565b611f07565b8273ffffffffffffffffffffffffffffffffffffffff168273ffffffffffffffffffffffffffffffffffffffff1614611f0657611f0582826123eb565b5b5b505050565b600073ffffffffffffffffffffffffffffffffffffffff168273ffffffffffffffffffffffffffffffffffffffff161415611f7c576040517f08c379a0000000000000000000000000000000000000000000000000000000008152600401611f739061314c565b60405180910390fd5b611f8581611160565b15611fc5576040517f08c379a0000000000000000000000000000000000000000000000000000000008152600401611fbc9061306c565b60405180910390fd5b611fd160008383611b8c565b6001600360008473ffffffffffffffffffffffffffffffffffffffff1673ffffffffffffffffffffffffffffffffffffffff16815260200190815260200160002060008282546120219190613326565b92505081905550816002600083815260200190815260200160002060006101000a81548173ffffffffffffffffffffffffffffffffffffffff021916908373ffffffffffffffffffffffffffffffffffffffff160217905550808273ffffffffffffffffffffffffffffffffffffffff16600073ffffffffffffffffffffffffffffffffffffffff167fddf252ad1be2c89b69c2b068fc378daa952ba7f163c4a11628f55a4df523b3ef60405160405180910390a45050565b600080823b905060008111915050919050565b505050565b6008805490506009600083815260200190815260200160002081905550600881908060018154018082558091505060019003906000526020600020016000909190919091505550565b6000600161214884610a49565b6121529190613407565b9050600060076000848152602001908152602001600020549050818114612237576000600660008673ffffffffffffffffffffffffffffffffffffffff1673ffffffffffffffffffffffffffffffffffffffff168152602001908152602001600020600084815260200190815260200160002054905080600660008773ffffffffffffffffffffffffffffffffffffffff1673ffffffffffffffffffffffffffffffffffffffff168152602001908152602001600020600084815260200190815260200160002081905550816007600083815260200190815260200160002081905550505b6007600084815260200190815260200160002060009055600660008573ffffffffffffffffffffffffffffffffffffffff1673ffffffffffffffffffffffffffffffffffffffff16815260200190815260200160002060008381526020019081526020016000206000905550505050565b600060016008805490506122bc9190613407565b9050600060096000848152602001908152602001600020549050600060088381548110612312577f4e487b7100000000000000000000000000000000000000000000000000000000600052603260045260246000fd5b90600052602060002001549050806008838154811061235a577f4e487b7100000000000000000000000000000000000000000000000000000000600052603260045260246000fd5b9060005260206000200181905550816009600083815260200190815260200160002081905550600960008581526020019081526020016000206000905560088054806123cf577f4e487b7100000000000000000000000000000000000000000000000000000000600052603160045260246000fd5b6001900381819060005260206000200160009055905550505050565b60006123f683610a49565b905081600660008573ffffffffffffffffffffffffffffffffffffffff1673ffffffffffffffffffffffffffffffffffffffff168152602001908152602001600020600083815260200190815260200160002081905550806007600084815260200190815260200160002081905550505050565b6040518060600160405280600073ffffffffffffffffffffffffffffffffffffffff16815260200160608152602001606081525090565b8280546124ad906134f1565b90600052602060002090601f0160209004810192826124cf5760008555612516565b82601f106124e857805160ff1916838001178555612516565b82800160010185558215612516579182015b828111156125155782518255916020019190600101906124fa565b5b5090506125239190612527565b5090565b5b80821115612540576000816000905550600101612528565b5090565b60006125576125528461326c565b613247565b90508281526020810184848401111561256f57600080fd5b61257a8482856134af565b509392505050565b60006125956125908461329d565b613247565b9050828152602081018484840111156125ad57600080fd5b6125b88482856134af565b509392505050565b6000813590506125cf81613cdc565b92915050565b6000813590506125e481613cf3565b92915050565b6000813590506125f981613d0a565b92915050565b60008151905061260e81613d0a565b92915050565b600082601f83011261262557600080fd5b8135612635848260208601612544565b91505092915050565b600082601f83011261264f57600080fd5b813561265f848260208601612582565b91505092915050565b60008135905061267781613d21565b92915050565b60006020828403121561268f57600080fd5b600061269d848285016125c0565b91505092915050565b600080604083850312156126b957600080fd5b60006126c7858286016125c0565b92505060206126d8858286016125c0565b9150509250929050565b6000806000606084860312156126f757600080fd5b6000612705868287016125c0565b9350506020612716868287016125c0565b925050604061272786828701612668565b9150509250925092565b6000806000806080858703121561274757600080fd5b6000612755878288016125c0565b9450506020612766878288016125c0565b935050604061277787828801612668565b925050606085013567ffffffffffffffff81111561279457600080fd5b6127a087828801612614565b91505092959194509250565b600080604083850312156127bf57600080fd5b60006127cd858286016125c0565b92505060206127de858286016125d5565b9150509250929050565b600080604083850312156127fb57600080fd5b6000612809858286016125c0565b925050602061281a85828601612668565b9150509250929050565b60006020828403121561283657600080fd5b6000612844848285016125ea565b91505092915050565b60006020828403121561285f57600080fd5b600061286d848285016125ff565b91505092915050565b6000806040838503121561288957600080fd5b600083013567ffffffffffffffff8111156128a357600080fd5b6128af8582860161263e565b925050602083013567ffffffffffffffff8111156128cc57600080fd5b6128d88582860161263e565b9150509250929050565b6000602082840312156128f457600080fd5b600061290284828501612668565b91505092915050565b6129148161343b565b82525050565b6129238161344d565b82525050565b6000612934826132e3565b61293e81856132f9565b935061294e8185602086016134be565b6129578161368a565b840191505092915050565b600061296d826132ee565b612977818561330a565b93506129878185602086016134be565b6129908161368a565b840191505092915050565b60006129a6826132ee565b6129b0818561331b565b93506129c08185602086016134be565b80840191505092915050565b600081546129d9816134f1565b6129e3818661331b565b945060018216600081146129fe5760018114612a0f57612a42565b60ff19831686528186019350612a42565b612a18856132ce565b60005b83811015612a3a57815481890152600182019150602081019050612a1b565b838801955050505b50505092915050565b6000612a58601c8361330a565b9150612a638261369b565b602082019050919050565b6000612a7b602b8361330a565b9150612a86826136c4565b604082019050919050565b6000612a9e60328361330a565b9150612aa982613713565b604082019050919050565b6000612ac1601c8361330a565b9150612acc82613762565b602082019050919050565b6000612ae4600e8361331b565b9150612aef8261378b565b600e82019050919050565b6000612b0760248361330a565b9150612b12826137b4565b604082019050919050565b6000612b2a60198361330a565b9150612b3582613803565b602082019050919050565b6000612b4d60108361331b565b9150612b588261382c565b601082019050919050565b6000612b70602c8361330a565b9150612b7b82613855565b604082019050919050565b6000612b93600b8361331b565b9150612b9e826138a4565b600b82019050919050565b6000612bb660018361331b565b9150612bc1826138cd565b600182019050919050565b6000612bd960388361330a565b9150612be4826138f6565b604082019050919050565b6000612bfc60118361331b565b9150612c0782613945565b601182019050919050565b6000612c1f602a8361330a565b9150612c2a8261396e565b604082019050919050565b6000612c4260298361330a565b9150612c4d826139bd565b604082019050919050565b6000612c6560028361331b565b9150612c7082613a0c565b600282019050919050565b6000612c88600e8361331b565b9150612c9382613a35565b600e82019050919050565b6000612cab60208361330a565b9150612cb682613a5e565b602082019050919050565b6000612cce60118361331b565b9150612cd982613a87565b601182019050919050565b6000612cf1602c8361330a565b9150612cfc82613ab0565b604082019050919050565b6000612d1460298361330a565b9150612d1f82613aff565b604082019050919050565b6000612d37602f8361330a565b9150612d4282613b4e565b604082019050919050565b6000612d5a600a8361331b565b9150612d6582613b9d565b600a82019050919050565b6000612d7d60218361330a565b9150612d8882613bc6565b604082019050919050565b6000612da0601d8361331b565b9150612dab82613c15565b601d82019050919050565b6000612dc360318361330a565b9150612dce82613c3e565b604082019050919050565b6000612de6602c8361330a565b9150612df182613c8d565b604082019050919050565b612e05816134a5565b82525050565b6000612e17828561299b565b9150612e2282612ba9565b9150612e2e828461299b565b91508190509392505050565b6000612e4582612b40565b9150612e51828761299b565b9150612e5c82612cc1565b9150612e6882866129cc565b9150612e7382612ad7565b9150612e7f82856129cc565b9150612e8a82612bef565b9150612e96828461299b565b9150612ea182612c58565b915081905095945050505050565b6000612eba82612d4d565b9150612ec6828661299b565b9150612ed182612b86565b9150612edd82856129cc565b9150612ee882612c7b565b9150612ef482846129cc565b9150819050949350505050565b6000612f0c82612d93565b9150612f18828461299b565b915081905092915050565b6000602082019050612f38600083018461290b565b92915050565b6000608082019050612f53600083018761290b565b612f60602083018661290b565b612f6d6040830185612dfc565b8181036060830152612f7f8184612929565b905095945050505050565b6000606082019050612f9f600083018661290b565b8181036020830152612fb18185612962565b90508181036040830152612fc58184612962565b9050949350505050565b6000602082019050612fe4600083018461291a565b92915050565b600060208201905081810360008301526130048184612962565b905092915050565b6000602082019050818103600083015261302581612a4b565b9050919050565b6000602082019050818103600083015261304581612a6e565b9050919050565b6000602082019050818103600083015261306581612a91565b9050919050565b6000602082019050818103600083015261308581612ab4565b9050919050565b600060208201905081810360008301526130a581612afa565b9050919050565b600060208201905081810360008301526130c581612b1d565b9050919050565b600060208201905081810360008301526130e581612b63565b9050919050565b6000602082019050818103600083015261310581612bcc565b9050919050565b6000602082019050818103600083015261312581612c12565b9050919050565b6000602082019050818103600083015261314581612c35565b9050919050565b6000602082019050818103600083015261316581612c9e565b9050919050565b6000602082019050818103600083015261318581612ce4565b9050919050565b600060208201905081810360008301526131a581612d07565b9050919050565b600060208201905081810360008301526131c581612d2a565b9050919050565b600060208201905081810360008301526131e581612d70565b9050919050565b6000602082019050818103600083015261320581612db6565b9050919050565b6000602082019050818103600083015261322581612dd9565b9050919050565b60006020820190506132416000830184612dfc565b92915050565b6000613251613262565b905061325d8282613523565b919050565b6000604051905090565b600067ffffffffffffffff8211156132875761328661365b565b5b6132908261368a565b9050602081019050919050565b600067ffffffffffffffff8211156132b8576132b761365b565b5b6132c18261368a565b9050602081019050919050565b60008190508160005260206000209050919050565b600081519050919050565b600081519050919050565b600082825260208201905092915050565b600082825260208201905092915050565b600081905092915050565b6000613331826134a5565b915061333c836134a5565b9250827fffffffffffffffffffffffffffffffffffffffffffffffffffffffffffffffff03821115613371576133706135ce565b5b828201905092915050565b6000613387826134a5565b9150613392836134a5565b9250826133a2576133a16135fd565b5b828204905092915050565b60006133b8826134a5565b91506133c3836134a5565b9250817fffffffffffffffffffffffffffffffffffffffffffffffffffffffffffffffff04831182151516156133fc576133fb6135ce565b5b828202905092915050565b6000613412826134a5565b915061341d836134a5565b9250828210156134305761342f6135ce565b5b828203905092915050565b600061344682613485565b9050919050565b60008115159050919050565b60007fffffffff0000000000000000000000000000000000000000000000000000000082169050919050565b600073ffffffffffffffffffffffffffffffffffffffff82169050919050565b6000819050919050565b82818337600083830152505050565b60005b838110156134dc5780820151818401526020810190506134c1565b838111156134eb576000848401525b50505050565b6000600282049050600182168061350957607f821691505b6020821081141561351d5761351c61362c565b5b50919050565b61352c8261368a565b810181811067ffffffffffffffff8211171561354b5761354a61365b565b5b80604052505050565b600061355f826134a5565b91507fffffffffffffffffffffffffffffffffffffffffffffffffffffffffffffffff821415613592576135916135ce565b5b600182019050919050565b60006135a8826134a5565b91506135b3836134a5565b9250826135c3576135c26135fd565b5b828206905092915050565b7f4e487b7100000000000000000000000000000000000000000000000000000000600052601160045260246000fd5b7f4e487b7100000000000000000000000000000000000000000000000000000000600052601260045260246000fd5b7f4e487b7100000000000000000000000000000000000000000000000000000000600052602260045260246000fd5b7f4e487b7100000000000000000000000000000000000000000000000000000000600052604160045260246000fd5b6000601f19601f8301169050919050565b7f546865726520617265206e6f205469636b657473206c656674203a2800000000600082015250565b7f455243373231456e756d657261626c653a206f776e657220696e646578206f7560008201527f74206f6620626f756e6473000000000000000000000000000000000000000000602082015250565b7f4552433732313a207472616e7366657220746f206e6f6e20455243373231526560008201527f63656976657220696d706c656d656e7465720000000000000000000000000000602082015250565b7f4552433732313a20746f6b656e20616c7265616479206d696e74656400000000600082015250565b7f222c2022726566436f64223a2022000000000000000000000000000000000000600082015250565b7f4552433732313a207472616e7366657220746f20746865207a65726f2061646460008201527f7265737300000000000000000000000000000000000000000000000000000000602082015250565b7f4552433732313a20617070726f766520746f2063616c6c657200000000000000600082015250565b7f7b226576656e744f776e6572223a202200000000000000000000000000000000600082015250565b7f4552433732313a206f70657261746f7220717565727920666f72206e6f6e657860008201527f697374656e7420746f6b656e0000000000000000000000000000000000000000602082015250565b7f266576656e744e616d653d000000000000000000000000000000000000000000600082015250565b7f3f00000000000000000000000000000000000000000000000000000000000000600082015250565b7f4552433732313a20617070726f76652063616c6c6572206973206e6f74206f7760008201527f6e6572206e6f7220617070726f76656420666f7220616c6c0000000000000000602082015250565b7f222c20226d6178537570706c79223a2022000000000000000000000000000000600082015250565b7f4552433732313a2062616c616e636520717565727920666f7220746865207a6560008201527f726f206164647265737300000000000000000000000000000000000000000000602082015250565b7f4552433732313a206f776e657220717565727920666f72206e6f6e657869737460008201527f656e7420746f6b656e0000000000000000000000000000000000000000000000602082015250565b7f227d000000000000000000000000000000000000000000000000000000000000600082015250565b7f267469636b6574526566436f643d000000000000000000000000000000000000600082015250565b7f4552433732313a206d696e7420746f20746865207a65726f2061646472657373600082015250565b7f222c20226576656e744e616d65223a2022000000000000000000000000000000600082015250565b7f4552433732313a20617070726f76656420717565727920666f72206e6f6e657860008201527f697374656e7420746f6b656e0000000000000000000000000000000000000000602082015250565b7f4552433732313a207472616e73666572206f6620746f6b656e2074686174206960008201527f73206e6f74206f776e0000000000000000000000000000000000000000000000602082015250565b7f4552433732314d657461646174613a2055524920717565727920666f72206e6f60008201527f6e6578697374656e7420746f6b656e0000000000000000000000000000000000602082015250565b7f6576656e744f776e657200000000000000000000000000000000000000000000600082015250565b7f4552433732313a20617070726f76616c20746f2063757272656e74206f776e6560008201527f7200000000000000000000000000000000000000000000000000000000000000602082015250565b7f646174613a6170706c69636174696f6e2f6a736f6e3b6261736536342c000000600082015250565b7f4552433732313a207472616e736665722063616c6c6572206973206e6f74206f60008201527f776e6572206e6f7220617070726f766564000000000000000000000000000000602082015250565b7f455243373231456e756d657261626c653a20676c6f62616c20696e646578206f60008201527f7574206f6620626f756e64730000000000000000000000000000000000000000602082015250565b613ce58161343b565b8114613cf057600080fd5b50565b613cfc8161344d565b8114613d0757600080fd5b50565b613d1381613459565b8114613d1e57600080fd5b50565b613d2a816134a5565b8114613d3557600080fd5b5056fe4142434445464748494a4b4c4d4e4f505152535455565758595a6162636465666768696a6b6c6d6e6f707172737475767778797a303132333435363738392b2fa264697066735822122013abb0f15d8a91f1276353989b4c6d7c8e6ad40a001c2e53d4acc2fcecd0c62664736f6c63430008040033",
  "linkReferences": {},
  "deployedLinkReferences": {}
}