{
  "_format": "hh-sol-artifact-1",
  "contractName": "TicketSea",
  "sourceName": "contracts/TicketSea.sol",
  "abi": [
    {
      "inputs": [
        {
          "internalType": "uint256",
          "name": "_maxSupply",
          "type": "uint256"
        },
        {
          "internalType": "string",
          "name": "_eventName",
          "type": "string"
        },
        {
          "internalType": "string",
          "name": "_refCod",
          "type": "string"
        }
      ],
      "stateMutability": "nonpayable",
      "type": "constructor"
    },
    {
      "anonymous": false,
      "inputs": [
        {
          "indexed": true,
          "internalType": "address",
          "name": "owner",
          "type": "address"
        },
        {
          "indexed": true,
          "internalType": "address",
          "name": "approved",
          "type": "address"
        },
        {
          "indexed": true,
          "internalType": "uint256",
          "name": "tokenId",
          "type": "uint256"
        }
      ],
      "name": "Approval",
      "type": "event"
    },
    {
      "anonymous": false,
      "inputs": [
        {
          "indexed": true,
          "internalType": "address",
          "name": "owner",
          "type": "address"
        },
        {
          "indexed": true,
          "internalType": "address",
          "name": "operator",
          "type": "address"
        },
        {
          "indexed": false,
          "internalType": "bool",
          "name": "approved",
          "type": "bool"
        }
      ],
      "name": "ApprovalForAll",
      "type": "event"
    },
    {
      "anonymous": false,
      "inputs": [
        {
          "indexed": true,
          "internalType": "address",
          "name": "from",
          "type": "address"
        },
        {
          "indexed": true,
          "internalType": "address",
          "name": "to",
          "type": "address"
        },
        {
          "indexed": true,
          "internalType": "uint256",
          "name": "tokenId",
          "type": "uint256"
        }
      ],
      "name": "Transfer",
      "type": "event"
    },
    {
      "inputs": [
        {
          "internalType": "address",
          "name": "to",
          "type": "address"
        },
        {
          "internalType": "uint256",
          "name": "tokenId",
          "type": "uint256"
        }
      ],
      "name": "approve",
      "outputs": [],
      "stateMutability": "nonpayable",
      "type": "function"
    },
    {
      "inputs": [
        {
          "internalType": "address",
          "name": "owner",
          "type": "address"
        }
      ],
      "name": "balanceOf",
      "outputs": [
        {
          "internalType": "uint256",
          "name": "",
          "type": "uint256"
        }
      ],
      "stateMutability": "view",
      "type": "function"
    },
    {
      "inputs": [],
      "name": "eventName",
      "outputs": [
        {
          "internalType": "string",
          "name": "",
          "type": "string"
        }
      ],
      "stateMutability": "view",
      "type": "function"
    },
    {
      "inputs": [],
      "name": "eventOwner",
      "outputs": [
        {
          "internalType": "address",
          "name": "",
          "type": "address"
        }
      ],
      "stateMutability": "view",
      "type": "function"
    },
    {
      "inputs": [
        {
          "internalType": "uint256",
          "name": "tokenId",
          "type": "uint256"
        }
      ],
      "name": "getApproved",
      "outputs": [
        {
          "internalType": "address",
          "name": "",
          "type": "address"
        }
      ],
      "stateMutability": "view",
      "type": "function"
    },
    {
      "inputs": [],
      "name": "image",
      "outputs": [
        {
          "internalType": "string",
          "name": "",
          "type": "string"
        }
      ],
      "stateMutability": "view",
      "type": "function"
    },
    {
      "inputs": [
        {
          "internalType": "address",
          "name": "owner",
          "type": "address"
        },
        {
          "internalType": "address",
          "name": "operator",
          "type": "address"
        }
      ],
      "name": "isApprovedForAll",
      "outputs": [
        {
          "internalType": "bool",
          "name": "",
          "type": "bool"
        }
      ],
      "stateMutability": "view",
      "type": "function"
    },
    {
      "inputs": [],
      "name": "maxSupply",
      "outputs": [
        {
          "internalType": "uint256",
          "name": "",
          "type": "uint256"
        }
      ],
      "stateMutability": "view",
      "type": "function"
    },
    {
      "inputs": [],
      "name": "mint",
      "outputs": [],
      "stateMutability": "nonpayable",
      "type": "function"
    },
    {
      "inputs": [],
      "name": "name",
      "outputs": [
        {
          "internalType": "string",
          "name": "",
          "type": "string"
        }
      ],
      "stateMutability": "view",
      "type": "function"
    },
    {
      "inputs": [
        {
          "internalType": "uint256",
          "name": "tokenId",
          "type": "uint256"
        }
      ],
      "name": "ownerOf",
      "outputs": [
        {
          "internalType": "address",
          "name": "",
          "type": "address"
        }
      ],
      "stateMutability": "view",
      "type": "function"
    },
    {
      "inputs": [],
      "name": "refCod",
      "outputs": [
        {
          "internalType": "string",
          "name": "",
          "type": "string"
        }
      ],
      "stateMutability": "view",
      "type": "function"
    },
    {
      "inputs": [
        {
          "internalType": "address",
          "name": "from",
          "type": "address"
        },
        {
          "internalType": "address",
          "name": "to",
          "type": "address"
        },
        {
          "internalType": "uint256",
          "name": "tokenId",
          "type": "uint256"
        }
      ],
      "name": "safeTransferFrom",
      "outputs": [],
      "stateMutability": "nonpayable",
      "type": "function"
    },
    {
      "inputs": [
        {
          "internalType": "address",
          "name": "from",
          "type": "address"
        },
        {
          "internalType": "address",
          "name": "to",
          "type": "address"
        },
        {
          "internalType": "uint256",
          "name": "tokenId",
          "type": "uint256"
        },
        {
          "internalType": "bytes",
          "name": "_data",
          "type": "bytes"
        }
      ],
      "name": "safeTransferFrom",
      "outputs": [],
      "stateMutability": "nonpayable",
      "type": "function"
    },
    {
      "inputs": [
        {
          "internalType": "address",
          "name": "operator",
          "type": "address"
        },
        {
          "internalType": "bool",
          "name": "approved",
          "type": "bool"
        }
      ],
      "name": "setApprovalForAll",
      "outputs": [],
      "stateMutability": "nonpayable",
      "type": "function"
    },
    {
      "inputs": [
        {
          "internalType": "bytes4",
          "name": "_interfaceId",
          "type": "bytes4"
        }
      ],
      "name": "supportsInterface",
      "outputs": [
        {
          "internalType": "bool",
          "name": "",
          "type": "bool"
        }
      ],
      "stateMutability": "view",
      "type": "function"
    },
    {
      "inputs": [],
      "name": "symbol",
      "outputs": [
        {
          "internalType": "string",
          "name": "",
          "type": "string"
        }
      ],
      "stateMutability": "view",
      "type": "function"
    },
    {
      "inputs": [
        {
          "internalType": "uint256",
          "name": "index",
          "type": "uint256"
        }
      ],
      "name": "tokenByIndex",
      "outputs": [
        {
          "internalType": "uint256",
          "name": "",
          "type": "uint256"
        }
      ],
      "stateMutability": "view",
      "type": "function"
    },
    {
      "inputs": [
        {
          "internalType": "address",
          "name": "owner",
          "type": "address"
        },
        {
          "internalType": "uint256",
          "name": "index",
          "type": "uint256"
        }
      ],
      "name": "tokenOfOwnerByIndex",
      "outputs": [
        {
          "internalType": "uint256",
          "name": "",
          "type": "uint256"
        }
      ],
      "stateMutability": "view",
      "type": "function"
    },
    {
      "inputs": [
        {
          "internalType": "uint256",
          "name": "tokenId",
          "type": "uint256"
        }
      ],
      "name": "tokenURI",
      "outputs": [
        {
          "internalType": "string",
          "name": "",
          "type": "string"
        }
      ],
      "stateMutability": "view",
      "type": "function"
    },
    {
      "inputs": [],
      "name": "totalSupply",
      "outputs": [
        {
          "internalType": "uint256",
          "name": "",
          "type": "uint256"
        }
      ],
      "stateMutability": "view",
      "type": "function"
    },
    {
      "inputs": [
        {
          "internalType": "address",
          "name": "from",
          "type": "address"
        },
        {
          "internalType": "address",
          "name": "to",
          "type": "address"
        },
        {
          "internalType": "uint256",
          "name": "tokenId",
          "type": "uint256"
        }
      ],
      "name": "transferFrom",
      "outputs": [],
      "stateMutability": "nonpayable",
      "type": "function"
    }
  ],
  "bytecode": "0x60806040523480156200001157600080fd5b5060405162003ee038038062003ee0833981810160405281019062000037919062000293565b6040518060400160405280600981526020017f5469636b657453656100000000000000000000000000000000000000000000008152506040518060400160405280600381526020017f54534100000000000000000000000000000000000000000000000000000000008152508160009080519060200190620000bb9291906200015a565b508060019080519060200190620000d49291906200015a565b50505033600c60006101000a81548173ffffffffffffffffffffffffffffffffffffffff021916908373ffffffffffffffffffffffffffffffffffffffff16021790555082600b8190555081600d9080519060200190620001379291906200015a565b5080600e9080519060200190620001509291906200015a565b50505050620004af565b8280546200016890620003ba565b90600052602060002090601f0160209004810192826200018c5760008555620001d8565b82601f10620001a757805160ff1916838001178555620001d8565b82800160010185558215620001d8579182015b82811115620001d7578251825591602001919060010190620001ba565b5b509050620001e79190620001eb565b5090565b5b8082111562000206576000816000905550600101620001ec565b5090565b6000620002216200021b8462000344565b6200031b565b9050828152602081018484840111156200023a57600080fd5b6200024784828562000384565b509392505050565b600082601f8301126200026157600080fd5b8151620002738482602086016200020a565b91505092915050565b6000815190506200028d8162000495565b92915050565b600080600060608486031215620002a957600080fd5b6000620002b9868287016200027c565b935050602084015167ffffffffffffffff811115620002d757600080fd5b620002e5868287016200024f565b925050604084015167ffffffffffffffff8111156200030357600080fd5b62000311868287016200024f565b9150509250925092565b6000620003276200033a565b9050620003358282620003f0565b919050565b6000604051905090565b600067ffffffffffffffff82111562000362576200036162000455565b5b6200036d8262000484565b9050602081019050919050565b6000819050919050565b60005b83811015620003a457808201518184015260208101905062000387565b83811115620003b4576000848401525b50505050565b60006002820490506001821680620003d357607f821691505b60208210811415620003ea57620003e962000426565b5b50919050565b620003fb8262000484565b810181811067ffffffffffffffff821117156200041d576200041c62000455565b5b80604052505050565b7f4e487b7100000000000000000000000000000000000000000000000000000000600052602260045260246000fd5b7f4e487b7100000000000000000000000000000000000000000000000000000000600052604160045260246000fd5b6000601f19601f8301169050919050565b620004a0816200037a565b8114620004ac57600080fd5b50565b613a2180620004bf6000396000f3fe608060405234801561001057600080fd5b50600436106101425760003560e01c80636352211e116100b8578063b88d4fde1161007c578063b88d4fde14610377578063c87b56dd14610393578063d5abeb01146103c3578063e985e9c5146103e1578063f107f39814610411578063f3ccaac01461042f57610142565b80636352211e146102bf57806370a08231146102ef5780638043c9c01461031f57806395d89b411461033d578063a22cb4651461035b57610142565b806318160ddd1161010a57806318160ddd146101eb578063202141341461020957806323b872dd146102275780632f745c591461024357806342842e0e146102735780634f6ccce71461028f57610142565b806301ffc9a71461014757806306fdde0314610177578063081812fc14610195578063095ea7b3146101c55780631249c58b146101e1575b600080fd5b610161600480360381019061015c9190612579565b61044d565b60405161016e9190612c73565b60405180910390f35b61017f61045f565b60405161018c9190612c8e565b60405180910390f35b6101af60048036038101906101aa91906125cb565b6104f1565b6040516101bc9190612c0c565b60405180910390f35b6101df60048036038101906101da919061253d565b610576565b005b6101e961068e565b005b6101f36106f7565b6040516102009190612ed0565b60405180910390f35b610211610704565b60405161021e9190612c0c565b60405180910390f35b610241600480360381019061023c9190612437565b61072a565b005b61025d6004803603810190610258919061253d565b61078a565b60405161026a9190612ed0565b60405180910390f35b61028d60048036038101906102889190612437565b61082f565b005b6102a960048036038101906102a491906125cb565b61084f565b6040516102b69190612ed0565b60405180910390f35b6102d960048036038101906102d491906125cb565b6108e6565b6040516102e69190612c0c565b60405180910390f35b610309600480360381019061030491906123d2565b610998565b6040516103169190612ed0565b60405180910390f35b610327610a50565b6040516103349190612c8e565b60405180910390f35b610345610ade565b6040516103529190612c8e565b60405180910390f35b61037560048036038101906103709190612501565b610b70565b005b610391600480360381019061038c9190612486565b610cf1565b005b6103ad60048036038101906103a891906125cb565b610d53565b6040516103ba9190612c8e565b60405180910390f35b6103cb610e50565b6040516103d89190612ed0565b60405180910390f35b6103fb60048036038101906103f691906123fb565b610e56565b6040516104089190612c73565b60405180910390f35b610419610eea565b6040516104269190612c8e565b60405180910390f35b610437610f78565b6040516104449190612c8e565b60405180910390f35b600061045882610fbb565b9050919050565b60606000805461046e90613164565b80601f016020809104026020016040519081016040528092919081815260200182805461049a90613164565b80156104e75780601f106104bc576101008083540402835291602001916104e7565b820191906000526020600020905b8154815290600101906020018083116104ca57829003601f168201915b5050505050905090565b60006104fc82611035565b61053b576040517f08c379a000000000000000000000000000000000000000000000000000000000815260040161053290612e10565b60405180910390fd5b6004600083815260200190815260200160002060009054906101000a900473ffffffffffffffffffffffffffffffffffffffff169050919050565b6000610581826108e6565b90508073ffffffffffffffffffffffffffffffffffffffff168373ffffffffffffffffffffffffffffffffffffffff1614156105f2576040517f08c379a00000000000000000000000000000000000000000000000000000000081526004016105e990612e70565b60405180910390fd5b8073ffffffffffffffffffffffffffffffffffffffff166106116110a1565b73ffffffffffffffffffffffffffffffffffffffff161480610640575061063f8161063a6110a1565b610e56565b5b61067f576040517f08c379a000000000000000000000000000000000000000000000000000000000815260040161067690612d90565b60405180910390fd5b61068983836110a9565b505050565b600061069a600a611162565b9050600b5481106106e0576040517f08c379a00000000000000000000000000000000000000000000000000000000081526004016106d790612cb0565b60405180910390fd5b6106ea600a611170565b6106f43382611186565b50565b6000600880549050905090565b600c60009054906101000a900473ffffffffffffffffffffffffffffffffffffffff1681565b61073b6107356110a1565b826111a4565b61077a576040517f08c379a000000000000000000000000000000000000000000000000000000000815260040161077190612e90565b60405180910390fd5b610785838383611282565b505050565b600061079583610998565b82106107d6576040517f08c379a00000000000000000000000000000000000000000000000000000000081526004016107cd90612cd0565b60405180910390fd5b600660008473ffffffffffffffffffffffffffffffffffffffff1673ffffffffffffffffffffffffffffffffffffffff168152602001908152602001600020600083815260200190815260200160002054905092915050565b61084a83838360405180602001604052806000815250610cf1565b505050565b60006108596106f7565b821061089a576040517f08c379a000000000000000000000000000000000000000000000000000000000815260040161089190612eb0565b60405180910390fd5b600882815481106108d4577f4e487b7100000000000000000000000000000000000000000000000000000000600052603260045260246000fd5b90600052602060002001549050919050565b6000806002600084815260200190815260200160002060009054906101000a900473ffffffffffffffffffffffffffffffffffffffff169050600073ffffffffffffffffffffffffffffffffffffffff168173ffffffffffffffffffffffffffffffffffffffff16141561098f576040517f08c379a000000000000000000000000000000000000000000000000000000000815260040161098690612dd0565b60405180910390fd5b80915050919050565b60008073ffffffffffffffffffffffffffffffffffffffff168273ffffffffffffffffffffffffffffffffffffffff161415610a09576040517f08c379a0000000000000000000000000000000000000000000000000000000008152600401610a0090612db0565b60405180910390fd5b600360008373ffffffffffffffffffffffffffffffffffffffff1673ffffffffffffffffffffffffffffffffffffffff168152602001908152602001600020549050919050565b600d8054610a5d90613164565b80601f0160208091040260200160405190810160405280929190818152602001828054610a8990613164565b8015610ad65780601f10610aab57610100808354040283529160200191610ad6565b820191906000526020600020905b815481529060010190602001808311610ab957829003601f168201915b505050505081565b606060018054610aed90613164565b80601f0160208091040260200160405190810160405280929190818152602001828054610b1990613164565b8015610b665780601f10610b3b57610100808354040283529160200191610b66565b820191906000526020600020905b815481529060010190602001808311610b4957829003601f168201915b5050505050905090565b610b786110a1565b73ffffffffffffffffffffffffffffffffffffffff168273ffffffffffffffffffffffffffffffffffffffff161415610be6576040517f08c379a0000000000000000000000000000000000000000000000000000000008152600401610bdd90612d50565b60405180910390fd5b8060056000610bf36110a1565b73ffffffffffffffffffffffffffffffffffffffff1673ffffffffffffffffffffffffffffffffffffffff16815260200190815260200160002060008473ffffffffffffffffffffffffffffffffffffffff1673ffffffffffffffffffffffffffffffffffffffff16815260200190815260200160002060006101000a81548160ff0219169083151502179055508173ffffffffffffffffffffffffffffffffffffffff16610ca06110a1565b73ffffffffffffffffffffffffffffffffffffffff167f17307eab39ab6107e8899845ad3d59bd9653f200f220920489ca2b5937696c3183604051610ce59190612c73565b60405180910390a35050565b610d02610cfc6110a1565b836111a4565b610d41576040517f08c379a0000000000000000000000000000000000000000000000000000000008152600401610d3890612e90565b60405180910390fd5b610d4d848484846114de565b50505050565b6060610d5e82611035565b610d9d576040517f08c379a0000000000000000000000000000000000000000000000000000000008152600401610d9490612e50565b60405180910390fd5b6000610da7610f78565b90506000610e25610def600c60009054906101000a900473ffffffffffffffffffffffffffffffffffffffff1673ffffffffffffffffffffffffffffffffffffffff1661153a565b600d600e610dfe600b5461153a565b604051602001610e119493929190612b23565b6040516020818303038152906040526116e7565b905080604051602001610e389190612bea565b60405160208183030381529060405292505050919050565b600b5481565b6000600560008473ffffffffffffffffffffffffffffffffffffffff1673ffffffffffffffffffffffffffffffffffffffff16815260200190815260200160002060008373ffffffffffffffffffffffffffffffffffffffff1673ffffffffffffffffffffffffffffffffffffffff16815260200190815260200160002060009054906101000a900460ff16905092915050565b600e8054610ef790613164565b80601f0160208091040260200160405190810160405280929190818152602001828054610f2390613164565b8015610f705780601f10610f4557610100808354040283529160200191610f70565b820191906000526020600020905b815481529060010190602001808311610f5357829003601f168201915b505050505081565b60606000610f84611892565b90506000610f906118cf565b90508181604051602001610fa5929190612af4565b6040516020818303038152906040529250505090565b60007f780e9d63000000000000000000000000000000000000000000000000000000007bffffffffffffffffffffffffffffffffffffffffffffffffffffffff1916827bffffffffffffffffffffffffffffffffffffffffffffffffffffffff1916148061102e575061102d82611941565b5b9050919050565b60008073ffffffffffffffffffffffffffffffffffffffff166002600084815260200190815260200160002060009054906101000a900473ffffffffffffffffffffffffffffffffffffffff1673ffffffffffffffffffffffffffffffffffffffff1614159050919050565b600033905090565b816004600083815260200190815260200160002060006101000a81548173ffffffffffffffffffffffffffffffffffffffff021916908373ffffffffffffffffffffffffffffffffffffffff160217905550808273ffffffffffffffffffffffffffffffffffffffff1661111c836108e6565b73ffffffffffffffffffffffffffffffffffffffff167f8c5be1e5ebec7d5bd14f71427d1e84f3dd0314c0f7b2291e5b200ac8c7c3b92560405160405180910390a45050565b600081600001549050919050565b6001816000016000828254019250508190555050565b6111a0828260405180602001604052806000815250611a23565b5050565b60006111af82611035565b6111ee576040517f08c379a00000000000000000000000000000000000000000000000000000000081526004016111e590612d70565b60405180910390fd5b60006111f9836108e6565b90508073ffffffffffffffffffffffffffffffffffffffff168473ffffffffffffffffffffffffffffffffffffffff16148061126857508373ffffffffffffffffffffffffffffffffffffffff16611250846104f1565b73ffffffffffffffffffffffffffffffffffffffff16145b8061127957506112788185610e56565b5b91505092915050565b8273ffffffffffffffffffffffffffffffffffffffff166112a2826108e6565b73ffffffffffffffffffffffffffffffffffffffff16146112f8576040517f08c379a00000000000000000000000000000000000000000000000000000000081526004016112ef90612e30565b60405180910390fd5b600073ffffffffffffffffffffffffffffffffffffffff168273ffffffffffffffffffffffffffffffffffffffff161415611368576040517f08c379a000000000000000000000000000000000000000000000000000000000815260040161135f90612d30565b60405180910390fd5b611373838383611a7e565b61137e6000826110a9565b6001600360008573ffffffffffffffffffffffffffffffffffffffff1673ffffffffffffffffffffffffffffffffffffffff16815260200190815260200160002060008282546113ce919061307a565b925050819055506001600360008473ffffffffffffffffffffffffffffffffffffffff1673ffffffffffffffffffffffffffffffffffffffff16815260200190815260200160002060008282546114259190612f99565b92505081905550816002600083815260200190815260200160002060006101000a81548173ffffffffffffffffffffffffffffffffffffffff021916908373ffffffffffffffffffffffffffffffffffffffff160217905550808273ffffffffffffffffffffffffffffffffffffffff168473ffffffffffffffffffffffffffffffffffffffff167fddf252ad1be2c89b69c2b068fc378daa952ba7f163c4a11628f55a4df523b3ef60405160405180910390a4505050565b6114e9848484611282565b6114f584848484611a8e565b611534576040517f08c379a000000000000000000000000000000000000000000000000000000000815260040161152b90612cf0565b60405180910390fd5b50505050565b60606000821415611582576040518060400160405280600181526020017f300000000000000000000000000000000000000000000000000000000000000081525090506116e2565b600082905060005b600082146115b457808061159d906131c7565b915050600a826115ad9190612fef565b915061158a565b60008167ffffffffffffffff8111156115f6577f4e487b7100000000000000000000000000000000000000000000000000000000600052604160045260246000fd5b6040519080825280601f01601f1916602001820160405280156116285781602001600182028036833780820191505090505b5090505b600085146116db57600182611641919061307a565b9150600a856116509190613210565b603061165c9190612f99565b60f81b818381518110611698577f4e487b7100000000000000000000000000000000000000000000000000000000600052603260045260246000fd5b60200101907effffffffffffffffffffffffffffffffffffffffffffffffffffffffffffff1916908160001a905350600a856116d49190612fef565b945061162c565b8093505050505b919050565b606060008251141561170a5760405180602001604052806000815250905061188d565b60006040518060600160405280604081526020016139ac60409139905060006003600285516117399190612f99565b6117439190612fef565b600461174f9190613020565b905060006020826117609190612f99565b67ffffffffffffffff81111561179f577f4e487b7100000000000000000000000000000000000000000000000000000000600052604160045260246000fd5b6040519080825280601f01601f1916602001820160405280156117d15781602001600182028036833780820191505090505b509050818152600183018586518101602084015b8183101561184c576003830192508251603f8160121c1685015160f81b8252600182019150603f81600c1c1685015160f81b8252600182019150603f8160061c1685015160f81b8252600182019150603f811685015160f81b8252600182019150506117e5565b600389510660018114611866576002811461187657611881565b613d3d60f01b6002830352611881565b603d60f81b60018303525b50505050508093505050505b919050565b60606040518060400160405280601981526020017f68747470733a2f2f6170692e7469636b65745365612e696f2f00000000000000815250905090565b606080611913600c60009054906101000a900473ffffffffffffffffffffffffffffffffffffffff1673ffffffffffffffffffffffffffffffffffffffff1661153a565b600d600e60405160200161192993929190612b98565b60405160208183030381529060405290508091505090565b60007f80ac58cd000000000000000000000000000000000000000000000000000000007bffffffffffffffffffffffffffffffffffffffffffffffffffffffff1916827bffffffffffffffffffffffffffffffffffffffffffffffffffffffff19161480611a0c57507f5b5e139f000000000000000000000000000000000000000000000000000000007bffffffffffffffffffffffffffffffffffffffffffffffffffffffff1916827bffffffffffffffffffffffffffffffffffffffffffffffffffffffff1916145b80611a1c5750611a1b82611c25565b5b9050919050565b611a2d8383611c8f565b611a3a6000848484611a8e565b611a79576040517f08c379a0000000000000000000000000000000000000000000000000000000008152600401611a7090612cf0565b60405180910390fd5b505050565b611a89838383611e5d565b505050565b6000611aaf8473ffffffffffffffffffffffffffffffffffffffff16611f71565b15611c18578373ffffffffffffffffffffffffffffffffffffffff1663150b7a02611ad86110a1565b8786866040518563ffffffff1660e01b8152600401611afa9493929190612c27565b602060405180830381600087803b158015611b1457600080fd5b505af1925050508015611b4557506040513d601f19601f82011682018060405250810190611b4291906125a2565b60015b611bc8573d8060008114611b75576040519150601f19603f3d011682016040523d82523d6000602084013e611b7a565b606091505b50600081511415611bc0576040517f08c379a0000000000000000000000000000000000000000000000000000000008152600401611bb790612cf0565b60405180910390fd5b805181602001fd5b63150b7a0260e01b7bffffffffffffffffffffffffffffffffffffffffffffffffffffffff1916817bffffffffffffffffffffffffffffffffffffffffffffffffffffffff191614915050611c1d565b600190505b949350505050565b60007f01ffc9a7000000000000000000000000000000000000000000000000000000007bffffffffffffffffffffffffffffffffffffffffffffffffffffffff1916827bffffffffffffffffffffffffffffffffffffffffffffffffffffffff1916149050919050565b600073ffffffffffffffffffffffffffffffffffffffff168273ffffffffffffffffffffffffffffffffffffffff161415611cff576040517f08c379a0000000000000000000000000000000000000000000000000000000008152600401611cf690612df0565b60405180910390fd5b611d0881611035565b15611d48576040517f08c379a0000000000000000000000000000000000000000000000000000000008152600401611d3f90612d10565b60405180910390fd5b611d5460008383611a7e565b6001600360008473ffffffffffffffffffffffffffffffffffffffff1673ffffffffffffffffffffffffffffffffffffffff1681526020019081526020016000206000828254611da49190612f99565b92505081905550816002600083815260200190815260200160002060006101000a81548173ffffffffffffffffffffffffffffffffffffffff021916908373ffffffffffffffffffffffffffffffffffffffff160217905550808273ffffffffffffffffffffffffffffffffffffffff16600073ffffffffffffffffffffffffffffffffffffffff167fddf252ad1be2c89b69c2b068fc378daa952ba7f163c4a11628f55a4df523b3ef60405160405180910390a45050565b611e68838383611f84565b600073ffffffffffffffffffffffffffffffffffffffff168373ffffffffffffffffffffffffffffffffffffffff161415611eab57611ea681611f89565b611eea565b8173ffffffffffffffffffffffffffffffffffffffff168373ffffffffffffffffffffffffffffffffffffffff1614611ee957611ee88382611fd2565b5b5b600073ffffffffffffffffffffffffffffffffffffffff168273ffffffffffffffffffffffffffffffffffffffff161415611f2d57611f288161213f565b611f6c565b8273ffffffffffffffffffffffffffffffffffffffff168273ffffffffffffffffffffffffffffffffffffffff1614611f6b57611f6a8282612282565b5b5b505050565b600080823b905060008111915050919050565b505050565b6008805490506009600083815260200190815260200160002081905550600881908060018154018082558091505060019003906000526020600020016000909190919091505550565b60006001611fdf84610998565b611fe9919061307a565b90506000600760008481526020019081526020016000205490508181146120ce576000600660008673ffffffffffffffffffffffffffffffffffffffff1673ffffffffffffffffffffffffffffffffffffffff168152602001908152602001600020600084815260200190815260200160002054905080600660008773ffffffffffffffffffffffffffffffffffffffff1673ffffffffffffffffffffffffffffffffffffffff168152602001908152602001600020600084815260200190815260200160002081905550816007600083815260200190815260200160002081905550505b6007600084815260200190815260200160002060009055600660008573ffffffffffffffffffffffffffffffffffffffff1673ffffffffffffffffffffffffffffffffffffffff16815260200190815260200160002060008381526020019081526020016000206000905550505050565b60006001600880549050612153919061307a565b90506000600960008481526020019081526020016000205490506000600883815481106121a9577f4e487b7100000000000000000000000000000000000000000000000000000000600052603260045260246000fd5b9060005260206000200154905080600883815481106121f1577f4e487b7100000000000000000000000000000000000000000000000000000000600052603260045260246000fd5b906000526020600020018190555081600960008381526020019081526020016000208190555060096000858152602001908152602001600020600090556008805480612266577f4e487b7100000000000000000000000000000000000000000000000000000000600052603160045260246000fd5b6001900381819060005260206000200160009055905550505050565b600061228d83610998565b905081600660008573ffffffffffffffffffffffffffffffffffffffff1673ffffffffffffffffffffffffffffffffffffffff168152602001908152602001600020600083815260200190815260200160002081905550806007600084815260200190815260200160002081905550505050565b600061231461230f84612f10565b612eeb565b90508281526020810184848401111561232c57600080fd5b612337848285613122565b509392505050565b60008135905061234e8161394f565b92915050565b60008135905061236381613966565b92915050565b6000813590506123788161397d565b92915050565b60008151905061238d8161397d565b92915050565b600082601f8301126123a457600080fd5b81356123b4848260208601612301565b91505092915050565b6000813590506123cc81613994565b92915050565b6000602082840312156123e457600080fd5b60006123f28482850161233f565b91505092915050565b6000806040838503121561240e57600080fd5b600061241c8582860161233f565b925050602061242d8582860161233f565b9150509250929050565b60008060006060848603121561244c57600080fd5b600061245a8682870161233f565b935050602061246b8682870161233f565b925050604061247c868287016123bd565b9150509250925092565b6000806000806080858703121561249c57600080fd5b60006124aa8782880161233f565b94505060206124bb8782880161233f565b93505060406124cc878288016123bd565b925050606085013567ffffffffffffffff8111156124e957600080fd5b6124f587828801612393565b91505092959194509250565b6000806040838503121561251457600080fd5b60006125228582860161233f565b925050602061253385828601612354565b9150509250929050565b6000806040838503121561255057600080fd5b600061255e8582860161233f565b925050602061256f858286016123bd565b9150509250929050565b60006020828403121561258b57600080fd5b600061259984828501612369565b91505092915050565b6000602082840312156125b457600080fd5b60006125c28482850161237e565b91505092915050565b6000602082840312156125dd57600080fd5b60006125eb848285016123bd565b91505092915050565b6125fd816130ae565b82525050565b61260c816130c0565b82525050565b600061261d82612f56565b6126278185612f6c565b9350612637818560208601613131565b612640816132fd565b840191505092915050565b600061265682612f61565b6126608185612f7d565b9350612670818560208601613131565b612679816132fd565b840191505092915050565b600061268f82612f61565b6126998185612f8e565b93506126a9818560208601613131565b80840191505092915050565b600081546126c281613164565b6126cc8186612f8e565b945060018216600081146126e757600181146126f85761272b565b60ff1983168652818601935061272b565b61270185612f41565b60005b8381101561272357815481890152600182019150602081019050612704565b838801955050505b50505092915050565b6000612741601c83612f7d565b915061274c8261330e565b602082019050919050565b6000612764602b83612f7d565b915061276f82613337565b604082019050919050565b6000612787603283612f7d565b915061279282613386565b604082019050919050565b60006127aa601c83612f7d565b91506127b5826133d5565b602082019050919050565b60006127cd600e83612f8e565b91506127d8826133fe565b600e82019050919050565b60006127f0602483612f7d565b91506127fb82613427565b604082019050919050565b6000612813601983612f7d565b915061281e82613476565b602082019050919050565b6000612836601083612f8e565b91506128418261349f565b601082019050919050565b6000612859602c83612f7d565b9150612864826134c8565b604082019050919050565b600061287c600b83612f8e565b915061288782613517565b600b82019050919050565b600061289f600183612f8e565b91506128aa82613540565b600182019050919050565b60006128c2603883612f7d565b91506128cd82613569565b604082019050919050565b60006128e5601183612f8e565b91506128f0826135b8565b601182019050919050565b6000612908602a83612f7d565b9150612913826135e1565b604082019050919050565b600061292b602983612f7d565b915061293682613630565b604082019050919050565b600061294e600283612f8e565b91506129598261367f565b600282019050919050565b6000612971600e83612f8e565b915061297c826136a8565b600e82019050919050565b6000612994602083612f7d565b915061299f826136d1565b602082019050919050565b60006129b7601183612f8e565b91506129c2826136fa565b601182019050919050565b60006129da602c83612f7d565b91506129e582613723565b604082019050919050565b60006129fd602983612f7d565b9150612a0882613772565b604082019050919050565b6000612a20602f83612f7d565b9150612a2b826137c1565b604082019050919050565b6000612a43600a83612f8e565b9150612a4e82613810565b600a82019050919050565b6000612a66602183612f7d565b9150612a7182613839565b604082019050919050565b6000612a89601d83612f8e565b9150612a9482613888565b601d82019050919050565b6000612aac603183612f7d565b9150612ab7826138b1565b604082019050919050565b6000612acf602c83612f7d565b9150612ada82613900565b604082019050919050565b612aee81613118565b82525050565b6000612b008285612684565b9150612b0b82612892565b9150612b178284612684565b91508190509392505050565b6000612b2e82612829565b9150612b3a8287612684565b9150612b45826129aa565b9150612b5182866126b5565b9150612b5c826127c0565b9150612b6882856126b5565b9150612b73826128d8565b9150612b7f8284612684565b9150612b8a82612941565b915081905095945050505050565b6000612ba382612a36565b9150612baf8286612684565b9150612bba8261286f565b9150612bc682856126b5565b9150612bd182612964565b9150612bdd82846126b5565b9150819050949350505050565b6000612bf582612a7c565b9150612c018284612684565b915081905092915050565b6000602082019050612c2160008301846125f4565b92915050565b6000608082019050612c3c60008301876125f4565b612c4960208301866125f4565b612c566040830185612ae5565b8181036060830152612c688184612612565b905095945050505050565b6000602082019050612c886000830184612603565b92915050565b60006020820190508181036000830152612ca8818461264b565b905092915050565b60006020820190508181036000830152612cc981612734565b9050919050565b60006020820190508181036000830152612ce981612757565b9050919050565b60006020820190508181036000830152612d098161277a565b9050919050565b60006020820190508181036000830152612d298161279d565b9050919050565b60006020820190508181036000830152612d49816127e3565b9050919050565b60006020820190508181036000830152612d6981612806565b9050919050565b60006020820190508181036000830152612d898161284c565b9050919050565b60006020820190508181036000830152612da9816128b5565b9050919050565b60006020820190508181036000830152612dc9816128fb565b9050919050565b60006020820190508181036000830152612de98161291e565b9050919050565b60006020820190508181036000830152612e0981612987565b9050919050565b60006020820190508181036000830152612e29816129cd565b9050919050565b60006020820190508181036000830152612e49816129f0565b9050919050565b60006020820190508181036000830152612e6981612a13565b9050919050565b60006020820190508181036000830152612e8981612a59565b9050919050565b60006020820190508181036000830152612ea981612a9f565b9050919050565b60006020820190508181036000830152612ec981612ac2565b9050919050565b6000602082019050612ee56000830184612ae5565b92915050565b6000612ef5612f06565b9050612f018282613196565b919050565b6000604051905090565b600067ffffffffffffffff821115612f2b57612f2a6132ce565b5b612f34826132fd565b9050602081019050919050565b60008190508160005260206000209050919050565b600081519050919050565b600081519050919050565b600082825260208201905092915050565b600082825260208201905092915050565b600081905092915050565b6000612fa482613118565b9150612faf83613118565b9250827fffffffffffffffffffffffffffffffffffffffffffffffffffffffffffffffff03821115612fe457612fe3613241565b5b828201905092915050565b6000612ffa82613118565b915061300583613118565b92508261301557613014613270565b5b828204905092915050565b600061302b82613118565b915061303683613118565b9250817fffffffffffffffffffffffffffffffffffffffffffffffffffffffffffffffff048311821515161561306f5761306e613241565b5b828202905092915050565b600061308582613118565b915061309083613118565b9250828210156130a3576130a2613241565b5b828203905092915050565b60006130b9826130f8565b9050919050565b60008115159050919050565b60007fffffffff0000000000000000000000000000000000000000000000000000000082169050919050565b600073ffffffffffffffffffffffffffffffffffffffff82169050919050565b6000819050919050565b82818337600083830152505050565b60005b8381101561314f578082015181840152602081019050613134565b8381111561315e576000848401525b50505050565b6000600282049050600182168061317c57607f821691505b602082108114156131905761318f61329f565b5b50919050565b61319f826132fd565b810181811067ffffffffffffffff821117156131be576131bd6132ce565b5b80604052505050565b60006131d282613118565b91507fffffffffffffffffffffffffffffffffffffffffffffffffffffffffffffffff82141561320557613204613241565b5b600182019050919050565b600061321b82613118565b915061322683613118565b92508261323657613235613270565b5b828206905092915050565b7f4e487b7100000000000000000000000000000000000000000000000000000000600052601160045260246000fd5b7f4e487b7100000000000000000000000000000000000000000000000000000000600052601260045260246000fd5b7f4e487b7100000000000000000000000000000000000000000000000000000000600052602260045260246000fd5b7f4e487b7100000000000000000000000000000000000000000000000000000000600052604160045260246000fd5b6000601f19601f8301169050919050565b7f546865726520617265206e6f205469636b657473206c656674203a2800000000600082015250565b7f455243373231456e756d657261626c653a206f776e657220696e646578206f7560008201527f74206f6620626f756e6473000000000000000000000000000000000000000000602082015250565b7f4552433732313a207472616e7366657220746f206e6f6e20455243373231526560008201527f63656976657220696d706c656d656e7465720000000000000000000000000000602082015250565b7f4552433732313a20746f6b656e20616c7265616479206d696e74656400000000600082015250565b7f222c2022726566436f64223a2022000000000000000000000000000000000000600082015250565b7f4552433732313a207472616e7366657220746f20746865207a65726f2061646460008201527f7265737300000000000000000000000000000000000000000000000000000000602082015250565b7f4552433732313a20617070726f766520746f2063616c6c657200000000000000600082015250565b7f7b226576656e744f776e6572223a202200000000000000000000000000000000600082015250565b7f4552433732313a206f70657261746f7220717565727920666f72206e6f6e657860008201527f697374656e7420746f6b656e0000000000000000000000000000000000000000602082015250565b7f266576656e744e616d653d000000000000000000000000000000000000000000600082015250565b7f3f00000000000000000000000000000000000000000000000000000000000000600082015250565b7f4552433732313a20617070726f76652063616c6c6572206973206e6f74206f7760008201527f6e6572206e6f7220617070726f76656420666f7220616c6c0000000000000000602082015250565b7f222c20226d6178537570706c79223a2022000000000000000000000000000000600082015250565b7f4552433732313a2062616c616e636520717565727920666f7220746865207a6560008201527f726f206164647265737300000000000000000000000000000000000000000000602082015250565b7f4552433732313a206f776e657220717565727920666f72206e6f6e657869737460008201527f656e7420746f6b656e0000000000000000000000000000000000000000000000602082015250565b7f227d000000000000000000000000000000000000000000000000000000000000600082015250565b7f267469636b6574526566436f643d000000000000000000000000000000000000600082015250565b7f4552433732313a206d696e7420746f20746865207a65726f2061646472657373600082015250565b7f222c20226576656e744e616d65223a2022000000000000000000000000000000600082015250565b7f4552433732313a20617070726f76656420717565727920666f72206e6f6e657860008201527f697374656e7420746f6b656e0000000000000000000000000000000000000000602082015250565b7f4552433732313a207472616e73666572206f6620746f6b656e2074686174206960008201527f73206e6f74206f776e0000000000000000000000000000000000000000000000602082015250565b7f4552433732314d657461646174613a2055524920717565727920666f72206e6f60008201527f6e6578697374656e7420746f6b656e0000000000000000000000000000000000602082015250565b7f6576656e744f776e657200000000000000000000000000000000000000000000600082015250565b7f4552433732313a20617070726f76616c20746f2063757272656e74206f776e6560008201527f7200000000000000000000000000000000000000000000000000000000000000602082015250565b7f646174613a6170706c69636174696f6e2f6a736f6e3b6261736536342c000000600082015250565b7f4552433732313a207472616e736665722063616c6c6572206973206e6f74206f60008201527f776e6572206e6f7220617070726f766564000000000000000000000000000000602082015250565b7f455243373231456e756d657261626c653a20676c6f62616c20696e646578206f60008201527f7574206f6620626f756e64730000000000000000000000000000000000000000602082015250565b613958816130ae565b811461396357600080fd5b50565b61396f816130c0565b811461397a57600080fd5b50565b613986816130cc565b811461399157600080fd5b50565b61399d81613118565b81146139a857600080fd5b5056fe4142434445464748494a4b4c4d4e4f505152535455565758595a6162636465666768696a6b6c6d6e6f707172737475767778797a303132333435363738392b2fa26469706673582212207832242287a06fffc7455bc3de0f1a82b5292092e9838737404b2db11628800464736f6c63430008040033",
  "linkReferences": {},
  "deployedLinkReferences": {}
}