{
  "_format": "hh-sol-artifact-1",
  "contractName": "TicketSea",
  "sourceName": "contracts/TicketSea.sol",
  "abi": [
    {
      "inputs": [
        {
          "internalType": "uint256",
          "name": "_maxSupply",
          "type": "uint256"
        },
        {
          "internalType": "string",
          "name": "_eventName",
          "type": "string"
        },
        {
          "internalType": "string",
          "name": "_refCod",
          "type": "string"
        }
      ],
      "stateMutability": "nonpayable",
      "type": "constructor"
    },
    {
      "anonymous": false,
      "inputs": [
        {
          "indexed": true,
          "internalType": "address",
          "name": "owner",
          "type": "address"
        },
        {
          "indexed": true,
          "internalType": "address",
          "name": "approved",
          "type": "address"
        },
        {
          "indexed": true,
          "internalType": "uint256",
          "name": "tokenId",
          "type": "uint256"
        }
      ],
      "name": "Approval",
      "type": "event"
    },
    {
      "anonymous": false,
      "inputs": [
        {
          "indexed": true,
          "internalType": "address",
          "name": "owner",
          "type": "address"
        },
        {
          "indexed": true,
          "internalType": "address",
          "name": "operator",
          "type": "address"
        },
        {
          "indexed": false,
          "internalType": "bool",
          "name": "approved",
          "type": "bool"
        }
      ],
      "name": "ApprovalForAll",
      "type": "event"
    },
    {
      "anonymous": false,
      "inputs": [
        {
          "indexed": true,
          "internalType": "address",
          "name": "from",
          "type": "address"
        },
        {
          "indexed": true,
          "internalType": "address",
          "name": "to",
          "type": "address"
        },
        {
          "indexed": true,
          "internalType": "uint256",
          "name": "tokenId",
          "type": "uint256"
        }
      ],
      "name": "Transfer",
      "type": "event"
    },
    {
      "inputs": [
        {
          "internalType": "address",
          "name": "to",
          "type": "address"
        },
        {
          "internalType": "uint256",
          "name": "tokenId",
          "type": "uint256"
        }
      ],
      "name": "approve",
      "outputs": [],
      "stateMutability": "nonpayable",
      "type": "function"
    },
    {
      "inputs": [
        {
          "internalType": "address",
          "name": "owner",
          "type": "address"
        }
      ],
      "name": "balanceOf",
      "outputs": [
        {
          "internalType": "uint256",
          "name": "",
          "type": "uint256"
        }
      ],
      "stateMutability": "view",
      "type": "function"
    },
    {
      "inputs": [],
      "name": "eventName",
      "outputs": [
        {
          "internalType": "string",
          "name": "",
          "type": "string"
        }
      ],
      "stateMutability": "view",
      "type": "function"
    },
    {
      "inputs": [],
      "name": "eventOwner",
      "outputs": [
        {
          "internalType": "address",
          "name": "",
          "type": "address"
        }
      ],
      "stateMutability": "view",
      "type": "function"
    },
    {
      "inputs": [
        {
          "internalType": "uint256",
          "name": "tokenId",
          "type": "uint256"
        }
      ],
      "name": "getApproved",
      "outputs": [
        {
          "internalType": "address",
          "name": "",
          "type": "address"
        }
      ],
      "stateMutability": "view",
      "type": "function"
    },
    {
      "inputs": [],
      "name": "image",
      "outputs": [
        {
          "internalType": "string",
          "name": "",
          "type": "string"
        }
      ],
      "stateMutability": "view",
      "type": "function"
    },
    {
      "inputs": [
        {
          "internalType": "address",
          "name": "owner",
          "type": "address"
        },
        {
          "internalType": "address",
          "name": "operator",
          "type": "address"
        }
      ],
      "name": "isApprovedForAll",
      "outputs": [
        {
          "internalType": "bool",
          "name": "",
          "type": "bool"
        }
      ],
      "stateMutability": "view",
      "type": "function"
    },
    {
      "inputs": [],
      "name": "maxSupply",
      "outputs": [
        {
          "internalType": "uint256",
          "name": "",
          "type": "uint256"
        }
      ],
      "stateMutability": "view",
      "type": "function"
    },
    {
      "inputs": [],
      "name": "mint",
      "outputs": [],
      "stateMutability": "nonpayable",
      "type": "function"
    },
    {
      "inputs": [],
      "name": "name",
      "outputs": [
        {
          "internalType": "string",
          "name": "",
          "type": "string"
        }
      ],
      "stateMutability": "view",
      "type": "function"
    },
    {
      "inputs": [
        {
          "internalType": "uint256",
          "name": "tokenId",
          "type": "uint256"
        }
      ],
      "name": "ownerOf",
      "outputs": [
        {
          "internalType": "address",
          "name": "",
          "type": "address"
        }
      ],
      "stateMutability": "view",
      "type": "function"
    },
    {
      "inputs": [],
      "name": "refCod",
      "outputs": [
        {
          "internalType": "string",
          "name": "",
          "type": "string"
        }
      ],
      "stateMutability": "view",
      "type": "function"
    },
    {
      "inputs": [
        {
          "internalType": "address",
          "name": "from",
          "type": "address"
        },
        {
          "internalType": "address",
          "name": "to",
          "type": "address"
        },
        {
          "internalType": "uint256",
          "name": "tokenId",
          "type": "uint256"
        }
      ],
      "name": "safeTransferFrom",
      "outputs": [],
      "stateMutability": "nonpayable",
      "type": "function"
    },
    {
      "inputs": [
        {
          "internalType": "address",
          "name": "from",
          "type": "address"
        },
        {
          "internalType": "address",
          "name": "to",
          "type": "address"
        },
        {
          "internalType": "uint256",
          "name": "tokenId",
          "type": "uint256"
        },
        {
          "internalType": "bytes",
          "name": "_data",
          "type": "bytes"
        }
      ],
      "name": "safeTransferFrom",
      "outputs": [],
      "stateMutability": "nonpayable",
      "type": "function"
    },
    {
      "inputs": [
        {
          "internalType": "address",
          "name": "operator",
          "type": "address"
        },
        {
          "internalType": "bool",
          "name": "approved",
          "type": "bool"
        }
      ],
      "name": "setApprovalForAll",
      "outputs": [],
      "stateMutability": "nonpayable",
      "type": "function"
    },
    {
      "inputs": [
        {
          "internalType": "bytes4",
          "name": "_interfaceId",
          "type": "bytes4"
        }
      ],
      "name": "supportsInterface",
      "outputs": [
        {
          "internalType": "bool",
          "name": "",
          "type": "bool"
        }
      ],
      "stateMutability": "view",
      "type": "function"
    },
    {
      "inputs": [],
      "name": "symbol",
      "outputs": [
        {
          "internalType": "string",
          "name": "",
          "type": "string"
        }
      ],
      "stateMutability": "view",
      "type": "function"
    },
    {
      "inputs": [
        {
          "internalType": "uint256",
          "name": "index",
          "type": "uint256"
        }
      ],
      "name": "tokenByIndex",
      "outputs": [
        {
          "internalType": "uint256",
          "name": "",
          "type": "uint256"
        }
      ],
      "stateMutability": "view",
      "type": "function"
    },
    {
      "inputs": [
        {
          "internalType": "address",
          "name": "owner",
          "type": "address"
        },
        {
          "internalType": "uint256",
          "name": "index",
          "type": "uint256"
        }
      ],
      "name": "tokenOfOwnerByIndex",
      "outputs": [
        {
          "internalType": "uint256",
          "name": "",
          "type": "uint256"
        }
      ],
      "stateMutability": "view",
      "type": "function"
    },
    {
      "inputs": [
        {
          "internalType": "uint256",
          "name": "tokenId",
          "type": "uint256"
        }
      ],
      "name": "tokenURI",
      "outputs": [
        {
          "internalType": "string",
          "name": "",
          "type": "string"
        }
      ],
      "stateMutability": "view",
      "type": "function"
    },
    {
      "inputs": [],
      "name": "totalSupply",
      "outputs": [
        {
          "internalType": "uint256",
          "name": "",
          "type": "uint256"
        }
      ],
      "stateMutability": "view",
      "type": "function"
    },
    {
      "inputs": [
        {
          "internalType": "address",
          "name": "from",
          "type": "address"
        },
        {
          "internalType": "address",
          "name": "to",
          "type": "address"
        },
        {
          "internalType": "uint256",
          "name": "tokenId",
          "type": "uint256"
        }
      ],
      "name": "transferFrom",
      "outputs": [],
      "stateMutability": "nonpayable",
      "type": "function"
    }
  ],
  "bytecode": "0x60806040523480156200001157600080fd5b5060405162003ef438038062003ef4833981810160405281019062000037919062000293565b6040518060400160405280600981526020017f5469636b657453656100000000000000000000000000000000000000000000008152506040518060400160405280600381526020017f54534100000000000000000000000000000000000000000000000000000000008152508160009080519060200190620000bb9291906200015a565b508060019080519060200190620000d49291906200015a565b50505033600c60006101000a81548173ffffffffffffffffffffffffffffffffffffffff021916908373ffffffffffffffffffffffffffffffffffffffff16021790555082600b8190555081600d9080519060200190620001379291906200015a565b5080600e9080519060200190620001509291906200015a565b50505050620004af565b8280546200016890620003ba565b90600052602060002090601f0160209004810192826200018c5760008555620001d8565b82601f10620001a757805160ff1916838001178555620001d8565b82800160010185558215620001d8579182015b82811115620001d7578251825591602001919060010190620001ba565b5b509050620001e79190620001eb565b5090565b5b8082111562000206576000816000905550600101620001ec565b5090565b6000620002216200021b8462000344565b6200031b565b9050828152602081018484840111156200023a57600080fd5b6200024784828562000384565b509392505050565b600082601f8301126200026157600080fd5b8151620002738482602086016200020a565b91505092915050565b6000815190506200028d8162000495565b92915050565b600080600060608486031215620002a957600080fd5b6000620002b9868287016200027c565b935050602084015167ffffffffffffffff811115620002d757600080fd5b620002e5868287016200024f565b925050604084015167ffffffffffffffff8111156200030357600080fd5b62000311868287016200024f565b9150509250925092565b6000620003276200033a565b9050620003358282620003f0565b919050565b6000604051905090565b600067ffffffffffffffff82111562000362576200036162000455565b5b6200036d8262000484565b9050602081019050919050565b6000819050919050565b60005b83811015620003a457808201518184015260208101905062000387565b83811115620003b4576000848401525b50505050565b60006002820490506001821680620003d357607f821691505b60208210811415620003ea57620003e962000426565b5b50919050565b620003fb8262000484565b810181811067ffffffffffffffff821117156200041d576200041c62000455565b5b80604052505050565b7f4e487b7100000000000000000000000000000000000000000000000000000000600052602260045260246000fd5b7f4e487b7100000000000000000000000000000000000000000000000000000000600052604160045260246000fd5b6000601f19601f8301169050919050565b620004a0816200037a565b8114620004ac57600080fd5b50565b613a3580620004bf6000396000f3fe608060405234801561001057600080fd5b50600436106101425760003560e01c80636352211e116100b8578063b88d4fde1161007c578063b88d4fde14610377578063c87b56dd14610393578063d5abeb01146103c3578063e985e9c5146103e1578063f107f39814610411578063f3ccaac01461042f57610142565b80636352211e146102bf57806370a08231146102ef5780638043c9c01461031f57806395d89b411461033d578063a22cb4651461035b57610142565b806318160ddd1161010a57806318160ddd146101eb578063202141341461020957806323b872dd146102275780632f745c591461024357806342842e0e146102735780634f6ccce71461028f57610142565b806301ffc9a71461014757806306fdde0314610177578063081812fc14610195578063095ea7b3146101c55780631249c58b146101e1575b600080fd5b610161600480360381019061015c919061253d565b61044d565b60405161016e9190612c56565b60405180910390f35b61017f61045f565b60405161018c9190612c71565b60405180910390f35b6101af60048036038101906101aa919061258f565b6104f1565b6040516101bc9190612bef565b60405180910390f35b6101df60048036038101906101da9190612501565b610576565b005b6101e961068e565b005b6101f36106f7565b6040516102009190612eb3565b60405180910390f35b610211610704565b60405161021e9190612bef565b60405180910390f35b610241600480360381019061023c91906123fb565b61072a565b005b61025d60048036038101906102589190612501565b61078a565b60405161026a9190612eb3565b60405180910390f35b61028d600480360381019061028891906123fb565b61082f565b005b6102a960048036038101906102a4919061258f565b61084f565b6040516102b69190612eb3565b60405180910390f35b6102d960048036038101906102d4919061258f565b6108e6565b6040516102e69190612bef565b60405180910390f35b61030960048036038101906103049190612396565b610998565b6040516103169190612eb3565b60405180910390f35b610327610a50565b6040516103349190612c71565b60405180910390f35b610345610ade565b6040516103529190612c71565b60405180910390f35b610375600480360381019061037091906124c5565b610b70565b005b610391600480360381019061038c919061244a565b610cf1565b005b6103ad60048036038101906103a8919061258f565b610d53565b6040516103ba9190612c71565b60405180910390f35b6103cb610e32565b6040516103d89190612eb3565b60405180910390f35b6103fb60048036038101906103f691906123bf565b610e38565b6040516104089190612c56565b60405180910390f35b610419610ecc565b6040516104269190612c71565b60405180910390f35b610437610f5a565b6040516104449190612c71565b60405180910390f35b600061045882610f9d565b9050919050565b60606000805461046e90613147565b80601f016020809104026020016040519081016040528092919081815260200182805461049a90613147565b80156104e75780601f106104bc576101008083540402835291602001916104e7565b820191906000526020600020905b8154815290600101906020018083116104ca57829003601f168201915b5050505050905090565b60006104fc82611017565b61053b576040517f08c379a000000000000000000000000000000000000000000000000000000000815260040161053290612df3565b60405180910390fd5b6004600083815260200190815260200160002060009054906101000a900473ffffffffffffffffffffffffffffffffffffffff169050919050565b6000610581826108e6565b90508073ffffffffffffffffffffffffffffffffffffffff168373ffffffffffffffffffffffffffffffffffffffff1614156105f2576040517f08c379a00000000000000000000000000000000000000000000000000000000081526004016105e990612e53565b60405180910390fd5b8073ffffffffffffffffffffffffffffffffffffffff16610611611083565b73ffffffffffffffffffffffffffffffffffffffff161480610640575061063f8161063a611083565b610e38565b5b61067f576040517f08c379a000000000000000000000000000000000000000000000000000000000815260040161067690612d73565b60405180910390fd5b610689838361108b565b505050565b600061069a600a611144565b9050600b5481106106e0576040517f08c379a00000000000000000000000000000000000000000000000000000000081526004016106d790612c93565b60405180910390fd5b6106ea600a611152565b6106f43382611168565b50565b6000600880549050905090565b600c60009054906101000a900473ffffffffffffffffffffffffffffffffffffffff1681565b61073b610735611083565b82611186565b61077a576040517f08c379a000000000000000000000000000000000000000000000000000000000815260040161077190612e73565b60405180910390fd5b610785838383611264565b505050565b600061079583610998565b82106107d6576040517f08c379a00000000000000000000000000000000000000000000000000000000081526004016107cd90612cb3565b60405180910390fd5b600660008473ffffffffffffffffffffffffffffffffffffffff1673ffffffffffffffffffffffffffffffffffffffff168152602001908152602001600020600083815260200190815260200160002054905092915050565b61084a83838360405180602001604052806000815250610cf1565b505050565b60006108596106f7565b821061089a576040517f08c379a000000000000000000000000000000000000000000000000000000000815260040161089190612e93565b60405180910390fd5b600882815481106108d4577f4e487b7100000000000000000000000000000000000000000000000000000000600052603260045260246000fd5b90600052602060002001549050919050565b6000806002600084815260200190815260200160002060009054906101000a900473ffffffffffffffffffffffffffffffffffffffff169050600073ffffffffffffffffffffffffffffffffffffffff168173ffffffffffffffffffffffffffffffffffffffff16141561098f576040517f08c379a000000000000000000000000000000000000000000000000000000000815260040161098690612db3565b60405180910390fd5b80915050919050565b60008073ffffffffffffffffffffffffffffffffffffffff168273ffffffffffffffffffffffffffffffffffffffff161415610a09576040517f08c379a0000000000000000000000000000000000000000000000000000000008152600401610a0090612d93565b60405180910390fd5b600360008373ffffffffffffffffffffffffffffffffffffffff1673ffffffffffffffffffffffffffffffffffffffff168152602001908152602001600020549050919050565b600d8054610a5d90613147565b80601f0160208091040260200160405190810160405280929190818152602001828054610a8990613147565b8015610ad65780601f10610aab57610100808354040283529160200191610ad6565b820191906000526020600020905b815481529060010190602001808311610ab957829003601f168201915b505050505081565b606060018054610aed90613147565b80601f0160208091040260200160405190810160405280929190818152602001828054610b1990613147565b8015610b665780601f10610b3b57610100808354040283529160200191610b66565b820191906000526020600020905b815481529060010190602001808311610b4957829003601f168201915b5050505050905090565b610b78611083565b73ffffffffffffffffffffffffffffffffffffffff168273ffffffffffffffffffffffffffffffffffffffff161415610be6576040517f08c379a0000000000000000000000000000000000000000000000000000000008152600401610bdd90612d33565b60405180910390fd5b8060056000610bf3611083565b73ffffffffffffffffffffffffffffffffffffffff1673ffffffffffffffffffffffffffffffffffffffff16815260200190815260200160002060008473ffffffffffffffffffffffffffffffffffffffff1673ffffffffffffffffffffffffffffffffffffffff16815260200190815260200160002060006101000a81548160ff0219169083151502179055508173ffffffffffffffffffffffffffffffffffffffff16610ca0611083565b73ffffffffffffffffffffffffffffffffffffffff167f17307eab39ab6107e8899845ad3d59bd9653f200f220920489ca2b5937696c3183604051610ce59190612c56565b60405180910390a35050565b610d02610cfc611083565b83611186565b610d41576040517f08c379a0000000000000000000000000000000000000000000000000000000008152600401610d3890612e73565b60405180910390fd5b610d4d848484846114c0565b50505050565b6060610d5e82611017565b610d9d576040517f08c379a0000000000000000000000000000000000000000000000000000000008152600401610d9490612e33565b60405180910390fd5b6000610da7610f5a565b90506000610e07600c60009054906101000a900473ffffffffffffffffffffffffffffffffffffffff16600d600e610de0600b5461151c565b604051602001610df39493929190612b76565b6040516020818303038152906040526116c9565b905080604051602001610e1a9190612b54565b60405160208183030381529060405292505050919050565b600b5481565b6000600560008473ffffffffffffffffffffffffffffffffffffffff1673ffffffffffffffffffffffffffffffffffffffff16815260200190815260200160002060008373ffffffffffffffffffffffffffffffffffffffff1673ffffffffffffffffffffffffffffffffffffffff16815260200190815260200160002060009054906101000a900460ff16905092915050565b600e8054610ed990613147565b80601f0160208091040260200160405190810160405280929190818152602001828054610f0590613147565b8015610f525780601f10610f2757610100808354040283529160200191610f52565b820191906000526020600020905b815481529060010190602001808311610f3557829003601f168201915b505050505081565b60606000610f66611874565b90506000610f726118b1565b90508181604051602001610f87929190612acf565b6040516020818303038152906040529250505090565b60007f780e9d63000000000000000000000000000000000000000000000000000000007bffffffffffffffffffffffffffffffffffffffffffffffffffffffff1916827bffffffffffffffffffffffffffffffffffffffffffffffffffffffff19161480611010575061100f82611905565b5b9050919050565b60008073ffffffffffffffffffffffffffffffffffffffff166002600084815260200190815260200160002060009054906101000a900473ffffffffffffffffffffffffffffffffffffffff1673ffffffffffffffffffffffffffffffffffffffff1614159050919050565b600033905090565b816004600083815260200190815260200160002060006101000a81548173ffffffffffffffffffffffffffffffffffffffff021916908373ffffffffffffffffffffffffffffffffffffffff160217905550808273ffffffffffffffffffffffffffffffffffffffff166110fe836108e6565b73ffffffffffffffffffffffffffffffffffffffff167f8c5be1e5ebec7d5bd14f71427d1e84f3dd0314c0f7b2291e5b200ac8c7c3b92560405160405180910390a45050565b600081600001549050919050565b6001816000016000828254019250508190555050565b6111828282604051806020016040528060008152506119e7565b5050565b600061119182611017565b6111d0576040517f08c379a00000000000000000000000000000000000000000000000000000000081526004016111c790612d53565b60405180910390fd5b60006111db836108e6565b90508073ffffffffffffffffffffffffffffffffffffffff168473ffffffffffffffffffffffffffffffffffffffff16148061124a57508373ffffffffffffffffffffffffffffffffffffffff16611232846104f1565b73ffffffffffffffffffffffffffffffffffffffff16145b8061125b575061125a8185610e38565b5b91505092915050565b8273ffffffffffffffffffffffffffffffffffffffff16611284826108e6565b73ffffffffffffffffffffffffffffffffffffffff16146112da576040517f08c379a00000000000000000000000000000000000000000000000000000000081526004016112d190612e13565b60405180910390fd5b600073ffffffffffffffffffffffffffffffffffffffff168273ffffffffffffffffffffffffffffffffffffffff16141561134a576040517f08c379a000000000000000000000000000000000000000000000000000000000815260040161134190612d13565b60405180910390fd5b611355838383611a42565b61136060008261108b565b6001600360008573ffffffffffffffffffffffffffffffffffffffff1673ffffffffffffffffffffffffffffffffffffffff16815260200190815260200160002060008282546113b0919061305d565b925050819055506001600360008473ffffffffffffffffffffffffffffffffffffffff1673ffffffffffffffffffffffffffffffffffffffff16815260200190815260200160002060008282546114079190612f7c565b92505081905550816002600083815260200190815260200160002060006101000a81548173ffffffffffffffffffffffffffffffffffffffff021916908373ffffffffffffffffffffffffffffffffffffffff160217905550808273ffffffffffffffffffffffffffffffffffffffff168473ffffffffffffffffffffffffffffffffffffffff167fddf252ad1be2c89b69c2b068fc378daa952ba7f163c4a11628f55a4df523b3ef60405160405180910390a4505050565b6114cb848484611264565b6114d784848484611a52565b611516576040517f08c379a000000000000000000000000000000000000000000000000000000000815260040161150d90612cd3565b60405180910390fd5b50505050565b60606000821415611564576040518060400160405280600181526020017f300000000000000000000000000000000000000000000000000000000000000081525090506116c4565b600082905060005b6000821461159657808061157f906131aa565b915050600a8261158f9190612fd2565b915061156c565b60008167ffffffffffffffff8111156115d8577f4e487b7100000000000000000000000000000000000000000000000000000000600052604160045260246000fd5b6040519080825280601f01601f19166020018201604052801561160a5781602001600182028036833780820191505090505b5090505b600085146116bd57600182611623919061305d565b9150600a856116329190613217565b603061163e9190612f7c565b60f81b81838151811061167a577f4e487b7100000000000000000000000000000000000000000000000000000000600052603260045260246000fd5b60200101907effffffffffffffffffffffffffffffffffffffffffffffffffffffffffffff1916908160001a905350600a856116b69190612fd2565b945061160e565b8093505050505b919050565b60606000825114156116ec5760405180602001604052806000815250905061186f565b60006040518060600160405280604081526020016139c0604091399050600060036002855161171b9190612f7c565b6117259190612fd2565b60046117319190613003565b905060006020826117429190612f7c565b67ffffffffffffffff811115611781577f4e487b7100000000000000000000000000000000000000000000000000000000600052604160045260246000fd5b6040519080825280601f01601f1916602001820160405280156117b35781602001600182028036833780820191505090505b509050818152600183018586518101602084015b8183101561182e576003830192508251603f8160121c1685015160f81b8252600182019150603f81600c1c1685015160f81b8252600182019150603f8160061c1685015160f81b8252600182019150603f811685015160f81b8252600182019150506117c7565b600389510660018114611848576002811461185857611863565b613d3d60f01b6002830352611863565b603d60f81b60018303525b50505050508093505050505b919050565b60606040518060400160405280601981526020017f68747470733a2f2f6170692e7469636b65745365612e696f2f00000000000000815250905090565b606080600c60009054906101000a900473ffffffffffffffffffffffffffffffffffffffff16600d600e6040516020016118ed93929190612afe565b60405160208183030381529060405290508091505090565b60007f80ac58cd000000000000000000000000000000000000000000000000000000007bffffffffffffffffffffffffffffffffffffffffffffffffffffffff1916827bffffffffffffffffffffffffffffffffffffffffffffffffffffffff191614806119d057507f5b5e139f000000000000000000000000000000000000000000000000000000007bffffffffffffffffffffffffffffffffffffffffffffffffffffffff1916827bffffffffffffffffffffffffffffffffffffffffffffffffffffffff1916145b806119e057506119df82611be9565b5b9050919050565b6119f18383611c53565b6119fe6000848484611a52565b611a3d576040517f08c379a0000000000000000000000000000000000000000000000000000000008152600401611a3490612cd3565b60405180910390fd5b505050565b611a4d838383611e21565b505050565b6000611a738473ffffffffffffffffffffffffffffffffffffffff16611f35565b15611bdc578373ffffffffffffffffffffffffffffffffffffffff1663150b7a02611a9c611083565b8786866040518563ffffffff1660e01b8152600401611abe9493929190612c0a565b602060405180830381600087803b158015611ad857600080fd5b505af1925050508015611b0957506040513d601f19601f82011682018060405250810190611b069190612566565b60015b611b8c573d8060008114611b39576040519150601f19603f3d011682016040523d82523d6000602084013e611b3e565b606091505b50600081511415611b84576040517f08c379a0000000000000000000000000000000000000000000000000000000008152600401611b7b90612cd3565b60405180910390fd5b805181602001fd5b63150b7a0260e01b7bffffffffffffffffffffffffffffffffffffffffffffffffffffffff1916817bffffffffffffffffffffffffffffffffffffffffffffffffffffffff191614915050611be1565b600190505b949350505050565b60007f01ffc9a7000000000000000000000000000000000000000000000000000000007bffffffffffffffffffffffffffffffffffffffffffffffffffffffff1916827bffffffffffffffffffffffffffffffffffffffffffffffffffffffff1916149050919050565b600073ffffffffffffffffffffffffffffffffffffffff168273ffffffffffffffffffffffffffffffffffffffff161415611cc3576040517f08c379a0000000000000000000000000000000000000000000000000000000008152600401611cba90612dd3565b60405180910390fd5b611ccc81611017565b15611d0c576040517f08c379a0000000000000000000000000000000000000000000000000000000008152600401611d0390612cf3565b60405180910390fd5b611d1860008383611a42565b6001600360008473ffffffffffffffffffffffffffffffffffffffff1673ffffffffffffffffffffffffffffffffffffffff1681526020019081526020016000206000828254611d689190612f7c565b92505081905550816002600083815260200190815260200160002060006101000a81548173ffffffffffffffffffffffffffffffffffffffff021916908373ffffffffffffffffffffffffffffffffffffffff160217905550808273ffffffffffffffffffffffffffffffffffffffff16600073ffffffffffffffffffffffffffffffffffffffff167fddf252ad1be2c89b69c2b068fc378daa952ba7f163c4a11628f55a4df523b3ef60405160405180910390a45050565b611e2c838383611f48565b600073ffffffffffffffffffffffffffffffffffffffff168373ffffffffffffffffffffffffffffffffffffffff161415611e6f57611e6a81611f4d565b611eae565b8173ffffffffffffffffffffffffffffffffffffffff168373ffffffffffffffffffffffffffffffffffffffff1614611ead57611eac8382611f96565b5b5b600073ffffffffffffffffffffffffffffffffffffffff168273ffffffffffffffffffffffffffffffffffffffff161415611ef157611eec81612103565b611f30565b8273ffffffffffffffffffffffffffffffffffffffff168273ffffffffffffffffffffffffffffffffffffffff1614611f2f57611f2e8282612246565b5b5b505050565b600080823b905060008111915050919050565b505050565b6008805490506009600083815260200190815260200160002081905550600881908060018154018082558091505060019003906000526020600020016000909190919091505550565b60006001611fa384610998565b611fad919061305d565b9050600060076000848152602001908152602001600020549050818114612092576000600660008673ffffffffffffffffffffffffffffffffffffffff1673ffffffffffffffffffffffffffffffffffffffff168152602001908152602001600020600084815260200190815260200160002054905080600660008773ffffffffffffffffffffffffffffffffffffffff1673ffffffffffffffffffffffffffffffffffffffff168152602001908152602001600020600084815260200190815260200160002081905550816007600083815260200190815260200160002081905550505b6007600084815260200190815260200160002060009055600660008573ffffffffffffffffffffffffffffffffffffffff1673ffffffffffffffffffffffffffffffffffffffff16815260200190815260200160002060008381526020019081526020016000206000905550505050565b60006001600880549050612117919061305d565b905060006009600084815260200190815260200160002054905060006008838154811061216d577f4e487b7100000000000000000000000000000000000000000000000000000000600052603260045260246000fd5b9060005260206000200154905080600883815481106121b5577f4e487b7100000000000000000000000000000000000000000000000000000000600052603260045260246000fd5b90600052602060002001819055508160096000838152602001908152602001600020819055506009600085815260200190815260200160002060009055600880548061222a577f4e487b7100000000000000000000000000000000000000000000000000000000600052603160045260246000fd5b6001900381819060005260206000200160009055905550505050565b600061225183610998565b905081600660008573ffffffffffffffffffffffffffffffffffffffff1673ffffffffffffffffffffffffffffffffffffffff168152602001908152602001600020600083815260200190815260200160002081905550806007600084815260200190815260200160002081905550505050565b60006122d86122d384612ef3565b612ece565b9050828152602081018484840111156122f057600080fd5b6122fb848285613105565b509392505050565b60008135905061231281613963565b92915050565b6000813590506123278161397a565b92915050565b60008135905061233c81613991565b92915050565b60008151905061235181613991565b92915050565b600082601f83011261236857600080fd5b81356123788482602086016122c5565b91505092915050565b600081359050612390816139a8565b92915050565b6000602082840312156123a857600080fd5b60006123b684828501612303565b91505092915050565b600080604083850312156123d257600080fd5b60006123e085828601612303565b92505060206123f185828601612303565b9150509250929050565b60008060006060848603121561241057600080fd5b600061241e86828701612303565b935050602061242f86828701612303565b925050604061244086828701612381565b9150509250925092565b6000806000806080858703121561246057600080fd5b600061246e87828801612303565b945050602061247f87828801612303565b935050604061249087828801612381565b925050606085013567ffffffffffffffff8111156124ad57600080fd5b6124b987828801612357565b91505092959194509250565b600080604083850312156124d857600080fd5b60006124e685828601612303565b92505060206124f785828601612318565b9150509250929050565b6000806040838503121561251457600080fd5b600061252285828601612303565b925050602061253385828601612381565b9150509250929050565b60006020828403121561254f57600080fd5b600061255d8482850161232d565b91505092915050565b60006020828403121561257857600080fd5b600061258684828501612342565b91505092915050565b6000602082840312156125a157600080fd5b60006125af84828501612381565b91505092915050565b6125c181613091565b82525050565b6125d86125d382613091565b6131f3565b82525050565b6125e7816130a3565b82525050565b60006125f882612f39565b6126028185612f4f565b9350612612818560208601613114565b61261b81613304565b840191505092915050565b600061263182612f44565b61263b8185612f60565b935061264b818560208601613114565b61265481613304565b840191505092915050565b600061266a82612f44565b6126748185612f71565b9350612684818560208601613114565b80840191505092915050565b6000815461269d81613147565b6126a78186612f71565b945060018216600081146126c257600181146126d357612706565b60ff19831686528186019350612706565b6126dc85612f24565b60005b838110156126fe578154818901526001820191506020810190506126df565b838801955050505b50505092915050565b600061271c601c83612f60565b915061272782613322565b602082019050919050565b600061273f602b83612f60565b915061274a8261334b565b604082019050919050565b6000612762603283612f60565b915061276d8261339a565b604082019050919050565b6000612785601c83612f60565b9150612790826133e9565b602082019050919050565b60006127a8602483612f60565b91506127b382613412565b604082019050919050565b60006127cb601983612f60565b91506127d682613461565b602082019050919050565b60006127ee602c83612f60565b91506127f98261348a565b604082019050919050565b6000612811600b83612f71565b915061281c826134d9565b600b82019050919050565b6000612834600183612f71565b915061283f82613502565b600182019050919050565b6000612857603883612f60565b91506128628261352b565b604082019050919050565b600061287a602a83612f60565b91506128858261357a565b604082019050919050565b600061289d602983612f60565b91506128a8826135c9565b604082019050919050565b60006128c0601083612f71565b91506128cb82613618565b601082019050919050565b60006128e3600283612f71565b91506128ee82613641565b600282019050919050565b6000612906601083612f71565b91506129118261366a565b601082019050919050565b6000612929600e83612f71565b915061293482613693565b600e82019050919050565b600061294c602083612f60565b9150612957826136bc565b602082019050919050565b600061296f602c83612f60565b915061297a826136e5565b604082019050919050565b6000612992602983612f60565b915061299d82613734565b604082019050919050565b60006129b5602f83612f60565b91506129c082613783565b604082019050919050565b60006129d8600a83612f71565b91506129e3826137d2565b600a82019050919050565b60006129fb602183612f60565b9150612a06826137fb565b604082019050919050565b6000612a1e600d83612f71565b9150612a298261384a565b600d82019050919050565b6000612a41601d83612f71565b9150612a4c82613873565b601d82019050919050565b6000612a64603183612f60565b9150612a6f8261389c565b604082019050919050565b6000612a87602c83612f60565b9150612a92826138eb565b604082019050919050565b6000612aaa600f83612f71565b9150612ab58261393a565b600f82019050919050565b612ac9816130fb565b82525050565b6000612adb828561265f565b9150612ae682612827565b9150612af2828461265f565b91508190509392505050565b6000612b09826129cb565b9150612b1582866125c7565b601482019150612b2482612804565b9150612b308285612690565b9150612b3b8261291c565b9150612b478284612690565b9150819050949350505050565b6000612b5f82612a34565b9150612b6b828461265f565b915081905092915050565b6000612b8182612a9d565b9150612b8d82876125c7565b601482019150612b9c826128f9565b9150612ba88286612690565b9150612bb382612a11565b9150612bbf8285612690565b9150612bca826128b3565b9150612bd6828461265f565b9150612be1826128d6565b915081905095945050505050565b6000602082019050612c0460008301846125b8565b92915050565b6000608082019050612c1f60008301876125b8565b612c2c60208301866125b8565b612c396040830185612ac0565b8181036060830152612c4b81846125ed565b905095945050505050565b6000602082019050612c6b60008301846125de565b92915050565b60006020820190508181036000830152612c8b8184612626565b905092915050565b60006020820190508181036000830152612cac8161270f565b9050919050565b60006020820190508181036000830152612ccc81612732565b9050919050565b60006020820190508181036000830152612cec81612755565b9050919050565b60006020820190508181036000830152612d0c81612778565b9050919050565b60006020820190508181036000830152612d2c8161279b565b9050919050565b60006020820190508181036000830152612d4c816127be565b9050919050565b60006020820190508181036000830152612d6c816127e1565b9050919050565b60006020820190508181036000830152612d8c8161284a565b9050919050565b60006020820190508181036000830152612dac8161286d565b9050919050565b60006020820190508181036000830152612dcc81612890565b9050919050565b60006020820190508181036000830152612dec8161293f565b9050919050565b60006020820190508181036000830152612e0c81612962565b9050919050565b60006020820190508181036000830152612e2c81612985565b9050919050565b60006020820190508181036000830152612e4c816129a8565b9050919050565b60006020820190508181036000830152612e6c816129ee565b9050919050565b60006020820190508181036000830152612e8c81612a57565b9050919050565b60006020820190508181036000830152612eac81612a7a565b9050919050565b6000602082019050612ec86000830184612ac0565b92915050565b6000612ed8612ee9565b9050612ee48282613179565b919050565b6000604051905090565b600067ffffffffffffffff821115612f0e57612f0d6132d5565b5b612f1782613304565b9050602081019050919050565b60008190508160005260206000209050919050565b600081519050919050565b600081519050919050565b600082825260208201905092915050565b600082825260208201905092915050565b600081905092915050565b6000612f87826130fb565b9150612f92836130fb565b9250827fffffffffffffffffffffffffffffffffffffffffffffffffffffffffffffffff03821115612fc757612fc6613248565b5b828201905092915050565b6000612fdd826130fb565b9150612fe8836130fb565b925082612ff857612ff7613277565b5b828204905092915050565b600061300e826130fb565b9150613019836130fb565b9250817fffffffffffffffffffffffffffffffffffffffffffffffffffffffffffffffff048311821515161561305257613051613248565b5b828202905092915050565b6000613068826130fb565b9150613073836130fb565b92508282101561308657613085613248565b5b828203905092915050565b600061309c826130db565b9050919050565b60008115159050919050565b60007fffffffff0000000000000000000000000000000000000000000000000000000082169050919050565b600073ffffffffffffffffffffffffffffffffffffffff82169050919050565b6000819050919050565b82818337600083830152505050565b60005b83811015613132578082015181840152602081019050613117565b83811115613141576000848401525b50505050565b6000600282049050600182168061315f57607f821691505b60208210811415613173576131726132a6565b5b50919050565b61318282613304565b810181811067ffffffffffffffff821117156131a1576131a06132d5565b5b80604052505050565b60006131b5826130fb565b91507fffffffffffffffffffffffffffffffffffffffffffffffffffffffffffffffff8214156131e8576131e7613248565b5b600182019050919050565b60006131fe82613205565b9050919050565b600061321082613315565b9050919050565b6000613222826130fb565b915061322d836130fb565b92508261323d5761323c613277565b5b828206905092915050565b7f4e487b7100000000000000000000000000000000000000000000000000000000600052601160045260246000fd5b7f4e487b7100000000000000000000000000000000000000000000000000000000600052601260045260246000fd5b7f4e487b7100000000000000000000000000000000000000000000000000000000600052602260045260246000fd5b7f4e487b7100000000000000000000000000000000000000000000000000000000600052604160045260246000fd5b6000601f19601f8301169050919050565b60008160601b9050919050565b7f546865726520617265206e6f205469636b657473206c656674203a2800000000600082015250565b7f455243373231456e756d657261626c653a206f776e657220696e646578206f7560008201527f74206f6620626f756e6473000000000000000000000000000000000000000000602082015250565b7f4552433732313a207472616e7366657220746f206e6f6e20455243373231526560008201527f63656976657220696d706c656d656e7465720000000000000000000000000000602082015250565b7f4552433732313a20746f6b656e20616c7265616479206d696e74656400000000600082015250565b7f4552433732313a207472616e7366657220746f20746865207a65726f2061646460008201527f7265737300000000000000000000000000000000000000000000000000000000602082015250565b7f4552433732313a20617070726f766520746f2063616c6c657200000000000000600082015250565b7f4552433732313a206f70657261746f7220717565727920666f72206e6f6e657860008201527f697374656e7420746f6b656e0000000000000000000000000000000000000000602082015250565b7f266576656e744e616d653d000000000000000000000000000000000000000000600082015250565b7f3f00000000000000000000000000000000000000000000000000000000000000600082015250565b7f4552433732313a20617070726f76652063616c6c6572206973206e6f74206f7760008201527f6e6572206e6f7220617070726f76656420666f7220616c6c0000000000000000602082015250565b7f4552433732313a2062616c616e636520717565727920666f7220746865207a6560008201527f726f206164647265737300000000000000000000000000000000000000000000602082015250565b7f4552433732313a206f776e657220717565727920666f72206e6f6e657869737460008201527f656e7420746f6b656e0000000000000000000000000000000000000000000000602082015250565b7f222c20226d6178537570706c79223a2000000000000000000000000000000000600082015250565b7f227d000000000000000000000000000000000000000000000000000000000000600082015250565b7f222c20226576656e744e616d65223a2000000000000000000000000000000000600082015250565b7f267469636b6574526566436f643d000000000000000000000000000000000000600082015250565b7f4552433732313a206d696e7420746f20746865207a65726f2061646472657373600082015250565b7f4552433732313a20617070726f76656420717565727920666f72206e6f6e657860008201527f697374656e7420746f6b656e0000000000000000000000000000000000000000602082015250565b7f4552433732313a207472616e73666572206f6620746f6b656e2074686174206960008201527f73206e6f74206f776e0000000000000000000000000000000000000000000000602082015250565b7f4552433732314d657461646174613a2055524920717565727920666f72206e6f60008201527f6e6578697374656e7420746f6b656e0000000000000000000000000000000000602082015250565b7f6576656e744f776e657200000000000000000000000000000000000000000000600082015250565b7f4552433732313a20617070726f76616c20746f2063757272656e74206f776e6560008201527f7200000000000000000000000000000000000000000000000000000000000000602082015250565b7f222c2022726566436f64223a2000000000000000000000000000000000000000600082015250565b7f646174613a6170706c69636174696f6e2f6a736f6e3b6261736536342c000000600082015250565b7f4552433732313a207472616e736665722063616c6c6572206973206e6f74206f60008201527f776e6572206e6f7220617070726f766564000000000000000000000000000000602082015250565b7f455243373231456e756d657261626c653a20676c6f62616c20696e646578206f60008201527f7574206f6620626f756e64730000000000000000000000000000000000000000602082015250565b7f7b226576656e744f776e6572223a200000000000000000000000000000000000600082015250565b61396c81613091565b811461397757600080fd5b50565b613983816130a3565b811461398e57600080fd5b50565b61399a816130af565b81146139a557600080fd5b50565b6139b1816130fb565b81146139bc57600080fd5b5056fe4142434445464748494a4b4c4d4e4f505152535455565758595a6162636465666768696a6b6c6d6e6f707172737475767778797a303132333435363738392b2fa264697066735822122009a86b6b292077eb83607cbcb119a741b30286ed5673901eaa12fb3a188daecb64736f6c63430008040033",
  "linkReferences": {},
  "deployedLinkReferences": {}
}