{
  "_format": "hh-sol-artifact-1",
  "contractName": "TicketSea",
  "sourceName": "contracts/TicketSea.sol",
  "abi": [
    {
      "inputs": [
        {
          "internalType": "uint256",
          "name": "_maxSupply",
          "type": "uint256"
        }
      ],
      "stateMutability": "nonpayable",
      "type": "constructor"
    },
    {
      "anonymous": false,
      "inputs": [
        {
          "indexed": true,
          "internalType": "address",
          "name": "owner",
          "type": "address"
        },
        {
          "indexed": true,
          "internalType": "address",
          "name": "approved",
          "type": "address"
        },
        {
          "indexed": true,
          "internalType": "uint256",
          "name": "tokenId",
          "type": "uint256"
        }
      ],
      "name": "Approval",
      "type": "event"
    },
    {
      "anonymous": false,
      "inputs": [
        {
          "indexed": true,
          "internalType": "address",
          "name": "owner",
          "type": "address"
        },
        {
          "indexed": true,
          "internalType": "address",
          "name": "operator",
          "type": "address"
        },
        {
          "indexed": false,
          "internalType": "bool",
          "name": "approved",
          "type": "bool"
        }
      ],
      "name": "ApprovalForAll",
      "type": "event"
    },
    {
      "anonymous": false,
      "inputs": [
        {
          "indexed": true,
          "internalType": "address",
          "name": "from",
          "type": "address"
        },
        {
          "indexed": true,
          "internalType": "address",
          "name": "to",
          "type": "address"
        },
        {
          "indexed": true,
          "internalType": "uint256",
          "name": "tokenId",
          "type": "uint256"
        }
      ],
      "name": "Transfer",
      "type": "event"
    },
    {
      "inputs": [
        {
          "internalType": "address",
          "name": "to",
          "type": "address"
        },
        {
          "internalType": "uint256",
          "name": "tokenId",
          "type": "uint256"
        }
      ],
      "name": "approve",
      "outputs": [],
      "stateMutability": "nonpayable",
      "type": "function"
    },
    {
      "inputs": [
        {
          "internalType": "address",
          "name": "owner",
          "type": "address"
        }
      ],
      "name": "balanceOf",
      "outputs": [
        {
          "internalType": "uint256",
          "name": "",
          "type": "uint256"
        }
      ],
      "stateMutability": "view",
      "type": "function"
    },
    {
      "inputs": [
        {
          "internalType": "uint256",
          "name": "tokenId",
          "type": "uint256"
        }
      ],
      "name": "getApproved",
      "outputs": [
        {
          "internalType": "address",
          "name": "",
          "type": "address"
        }
      ],
      "stateMutability": "view",
      "type": "function"
    },
    {
      "inputs": [],
      "name": "image",
      "outputs": [
        {
          "internalType": "string",
          "name": "",
          "type": "string"
        }
      ],
      "stateMutability": "view",
      "type": "function"
    },
    {
      "inputs": [
        {
          "internalType": "address",
          "name": "owner",
          "type": "address"
        },
        {
          "internalType": "address",
          "name": "operator",
          "type": "address"
        }
      ],
      "name": "isApprovedForAll",
      "outputs": [
        {
          "internalType": "bool",
          "name": "",
          "type": "bool"
        }
      ],
      "stateMutability": "view",
      "type": "function"
    },
    {
      "inputs": [],
      "name": "maxSupply",
      "outputs": [
        {
          "internalType": "uint256",
          "name": "",
          "type": "uint256"
        }
      ],
      "stateMutability": "view",
      "type": "function"
    },
    {
      "inputs": [],
      "name": "mint",
      "outputs": [],
      "stateMutability": "nonpayable",
      "type": "function"
    },
    {
      "inputs": [],
      "name": "name",
      "outputs": [
        {
          "internalType": "string",
          "name": "",
          "type": "string"
        }
      ],
      "stateMutability": "view",
      "type": "function"
    },
    {
      "inputs": [
        {
          "internalType": "uint256",
          "name": "tokenId",
          "type": "uint256"
        }
      ],
      "name": "ownerOf",
      "outputs": [
        {
          "internalType": "address",
          "name": "",
          "type": "address"
        }
      ],
      "stateMutability": "view",
      "type": "function"
    },
    {
      "inputs": [
        {
          "internalType": "address",
          "name": "from",
          "type": "address"
        },
        {
          "internalType": "address",
          "name": "to",
          "type": "address"
        },
        {
          "internalType": "uint256",
          "name": "tokenId",
          "type": "uint256"
        }
      ],
      "name": "safeTransferFrom",
      "outputs": [],
      "stateMutability": "nonpayable",
      "type": "function"
    },
    {
      "inputs": [
        {
          "internalType": "address",
          "name": "from",
          "type": "address"
        },
        {
          "internalType": "address",
          "name": "to",
          "type": "address"
        },
        {
          "internalType": "uint256",
          "name": "tokenId",
          "type": "uint256"
        },
        {
          "internalType": "bytes",
          "name": "_data",
          "type": "bytes"
        }
      ],
      "name": "safeTransferFrom",
      "outputs": [],
      "stateMutability": "nonpayable",
      "type": "function"
    },
    {
      "inputs": [
        {
          "internalType": "address",
          "name": "operator",
          "type": "address"
        },
        {
          "internalType": "bool",
          "name": "approved",
          "type": "bool"
        }
      ],
      "name": "setApprovalForAll",
      "outputs": [],
      "stateMutability": "nonpayable",
      "type": "function"
    },
    {
      "inputs": [
        {
          "internalType": "bytes4",
          "name": "_interfaceId",
          "type": "bytes4"
        }
      ],
      "name": "supportsInterface",
      "outputs": [
        {
          "internalType": "bool",
          "name": "",
          "type": "bool"
        }
      ],
      "stateMutability": "view",
      "type": "function"
    },
    {
      "inputs": [],
      "name": "symbol",
      "outputs": [
        {
          "internalType": "string",
          "name": "",
          "type": "string"
        }
      ],
      "stateMutability": "view",
      "type": "function"
    },
    {
      "inputs": [
        {
          "internalType": "uint256",
          "name": "index",
          "type": "uint256"
        }
      ],
      "name": "tokenByIndex",
      "outputs": [
        {
          "internalType": "uint256",
          "name": "",
          "type": "uint256"
        }
      ],
      "stateMutability": "view",
      "type": "function"
    },
    {
      "inputs": [
        {
          "internalType": "address",
          "name": "owner",
          "type": "address"
        },
        {
          "internalType": "uint256",
          "name": "index",
          "type": "uint256"
        }
      ],
      "name": "tokenOfOwnerByIndex",
      "outputs": [
        {
          "internalType": "uint256",
          "name": "",
          "type": "uint256"
        }
      ],
      "stateMutability": "view",
      "type": "function"
    },
    {
      "inputs": [
        {
          "internalType": "uint256",
          "name": "tokenId",
          "type": "uint256"
        }
      ],
      "name": "tokenURI",
      "outputs": [
        {
          "internalType": "string",
          "name": "",
          "type": "string"
        }
      ],
      "stateMutability": "view",
      "type": "function"
    },
    {
      "inputs": [],
      "name": "totalSupply",
      "outputs": [
        {
          "internalType": "uint256",
          "name": "",
          "type": "uint256"
        }
      ],
      "stateMutability": "view",
      "type": "function"
    },
    {
      "inputs": [
        {
          "internalType": "address",
          "name": "from",
          "type": "address"
        },
        {
          "internalType": "address",
          "name": "to",
          "type": "address"
        },
        {
          "internalType": "uint256",
          "name": "tokenId",
          "type": "uint256"
        }
      ],
      "name": "transferFrom",
      "outputs": [],
      "stateMutability": "nonpayable",
      "type": "function"
    }
  ],
  "bytecode": "0x60806040523480156200001157600080fd5b5060405162003a3f38038062003a3f8339818101604052810190620000379190620001ac565b6040518060400160405280600981526020017f5469636b657453656100000000000000000000000000000000000000000000008152506040518060400160405280600381526020017f54534100000000000000000000000000000000000000000000000000000000008152508160009080519060200190620000bb929190620000e5565b508060019080519060200190620000d4929190620000e5565b50505080600b819055505062000261565b828054620000f390620001e2565b90600052602060002090601f01602090048101928262000117576000855562000163565b82601f106200013257805160ff191683800117855562000163565b8280016001018555821562000163579182015b828111156200016257825182559160200191906001019062000145565b5b50905062000172919062000176565b5090565b5b808211156200019157600081600090555060010162000177565b5090565b600081519050620001a68162000247565b92915050565b600060208284031215620001bf57600080fd5b6000620001cf8482850162000195565b91505092915050565b6000819050919050565b60006002820490506001821680620001fb57607f821691505b6020821081141562000212576200021162000218565b5b50919050565b7f4e487b7100000000000000000000000000000000000000000000000000000000600052602260045260246000fd5b6200025281620001d8565b81146200025e57600080fd5b50565b6137ce80620002716000396000f3fe608060405234801561001057600080fd5b50600436106101215760003560e01c80634f6ccce7116100ad578063b88d4fde11610071578063b88d4fde1461031a578063c87b56dd14610336578063d5abeb0114610366578063e985e9c514610384578063f3ccaac0146103b457610121565b80634f6ccce7146102505780636352211e1461028057806370a08231146102b057806395d89b41146102e0578063a22cb465146102fe57610121565b80631249c58b116100f45780631249c58b146101c057806318160ddd146101ca57806323b872dd146101e85780632f745c591461020457806342842e0e1461023457610121565b806301ffc9a71461012657806306fdde0314610156578063081812fc14610174578063095ea7b3146101a4575b600080fd5b610140600480360381019061013b9190612356565b6103d2565b60405161014d91906129f5565b60405180910390f35b61015e6103e4565b60405161016b9190612a10565b60405180910390f35b61018e600480360381019061018991906123a8565b610476565b60405161019b919061298e565b60405180910390f35b6101be60048036038101906101b9919061231a565b6104fb565b005b6101c8610613565b005b6101d261067c565b6040516101df9190612c52565b60405180910390f35b61020260048036038101906101fd9190612214565b610689565b005b61021e6004803603810190610219919061231a565b6106e9565b60405161022b9190612c52565b60405180910390f35b61024e60048036038101906102499190612214565b61078e565b005b61026a600480360381019061026591906123a8565b6107ae565b6040516102779190612c52565b60405180910390f35b61029a600480360381019061029591906123a8565b610845565b6040516102a7919061298e565b60405180910390f35b6102ca60048036038101906102c591906121af565b6108f7565b6040516102d79190612c52565b60405180910390f35b6102e86109af565b6040516102f59190612a10565b60405180910390f35b610318600480360381019061031391906122de565b610a41565b005b610334600480360381019061032f9190612263565b610bc2565b005b610350600480360381019061034b91906123a8565b610c24565b60405161035d9190612a10565b60405180910390f35b61036e610cd9565b60405161037b9190612c52565b60405180910390f35b61039e600480360381019061039991906121d8565b610cdf565b6040516103ab91906129f5565b60405180910390f35b6103bc610d73565b6040516103c99190612a10565b60405180910390f35b60006103dd82610db6565b9050919050565b6060600080546103f390612ee6565b80601f016020809104026020016040519081016040528092919081815260200182805461041f90612ee6565b801561046c5780601f106104415761010080835404028352916020019161046c565b820191906000526020600020905b81548152906001019060200180831161044f57829003601f168201915b5050505050905090565b600061048182610e30565b6104c0576040517f08c379a00000000000000000000000000000000000000000000000000000000081526004016104b790612b92565b60405180910390fd5b6004600083815260200190815260200160002060009054906101000a900473ffffffffffffffffffffffffffffffffffffffff169050919050565b600061050682610845565b90508073ffffffffffffffffffffffffffffffffffffffff168373ffffffffffffffffffffffffffffffffffffffff161415610577576040517f08c379a000000000000000000000000000000000000000000000000000000000815260040161056e90612bf2565b60405180910390fd5b8073ffffffffffffffffffffffffffffffffffffffff16610596610e9c565b73ffffffffffffffffffffffffffffffffffffffff1614806105c557506105c4816105bf610e9c565b610cdf565b5b610604576040517f08c379a00000000000000000000000000000000000000000000000000000000081526004016105fb90612b12565b60405180910390fd5b61060e8383610ea4565b505050565b600061061f600a610f5d565b9050600b548110610665576040517f08c379a000000000000000000000000000000000000000000000000000000000815260040161065c90612a32565b60405180910390fd5b61066f600a610f6b565b6106793382610f81565b50565b6000600880549050905090565b61069a610694610e9c565b82610f9f565b6106d9576040517f08c379a00000000000000000000000000000000000000000000000000000000081526004016106d090612c12565b60405180910390fd5b6106e483838361107d565b505050565b60006106f4836108f7565b8210610735576040517f08c379a000000000000000000000000000000000000000000000000000000000815260040161072c90612a52565b60405180910390fd5b600660008473ffffffffffffffffffffffffffffffffffffffff1673ffffffffffffffffffffffffffffffffffffffff168152602001908152602001600020600083815260200190815260200160002054905092915050565b6107a983838360405180602001604052806000815250610bc2565b505050565b60006107b861067c565b82106107f9576040517f08c379a00000000000000000000000000000000000000000000000000000000081526004016107f090612c32565b60405180910390fd5b60088281548110610833577f4e487b7100000000000000000000000000000000000000000000000000000000600052603260045260246000fd5b90600052602060002001549050919050565b6000806002600084815260200190815260200160002060009054906101000a900473ffffffffffffffffffffffffffffffffffffffff169050600073ffffffffffffffffffffffffffffffffffffffff168173ffffffffffffffffffffffffffffffffffffffff1614156108ee576040517f08c379a00000000000000000000000000000000000000000000000000000000081526004016108e590612b52565b60405180910390fd5b80915050919050565b60008073ffffffffffffffffffffffffffffffffffffffff168273ffffffffffffffffffffffffffffffffffffffff161415610968576040517f08c379a000000000000000000000000000000000000000000000000000000000815260040161095f90612b32565b60405180910390fd5b600360008373ffffffffffffffffffffffffffffffffffffffff1673ffffffffffffffffffffffffffffffffffffffff168152602001908152602001600020549050919050565b6060600180546109be90612ee6565b80601f01602080910402602001604051908101604052809291908181526020018280546109ea90612ee6565b8015610a375780601f10610a0c57610100808354040283529160200191610a37565b820191906000526020600020905b815481529060010190602001808311610a1a57829003601f168201915b5050505050905090565b610a49610e9c565b73ffffffffffffffffffffffffffffffffffffffff168273ffffffffffffffffffffffffffffffffffffffff161415610ab7576040517f08c379a0000000000000000000000000000000000000000000000000000000008152600401610aae90612ad2565b60405180910390fd5b8060056000610ac4610e9c565b73ffffffffffffffffffffffffffffffffffffffff1673ffffffffffffffffffffffffffffffffffffffff16815260200190815260200160002060008473ffffffffffffffffffffffffffffffffffffffff1673ffffffffffffffffffffffffffffffffffffffff16815260200190815260200160002060006101000a81548160ff0219169083151502179055508173ffffffffffffffffffffffffffffffffffffffff16610b71610e9c565b73ffffffffffffffffffffffffffffffffffffffff167f17307eab39ab6107e8899845ad3d59bd9653f200f220920489ca2b5937696c3183604051610bb691906129f5565b60405180910390a35050565b610bd3610bcd610e9c565b83610f9f565b610c12576040517f08c379a0000000000000000000000000000000000000000000000000000000008152600401610c0990612c12565b60405180910390fd5b610c1e848484846112d9565b50505050565b6060610c2f82610e30565b610c6e576040517f08c379a0000000000000000000000000000000000000000000000000000000008152600401610c6590612bd2565b60405180910390fd5b6000610c78610d73565b90506000610cae610c8885611335565b83604051602001610c9a9291906128d1565b6040516020818303038152906040526114e2565b905080604051602001610cc1919061296c565b60405160208183030381529060405292505050919050565b600b5481565b6000600560008473ffffffffffffffffffffffffffffffffffffffff1673ffffffffffffffffffffffffffffffffffffffff16815260200190815260200160002060008373ffffffffffffffffffffffffffffffffffffffff1673ffffffffffffffffffffffffffffffffffffffff16815260200190815260200160002060009054906101000a900460ff16905092915050565b60606000610d7f61168d565b90506000610d8b6116ca565b90508181604051602001610da09291906128a2565b6040516020818303038152906040529250505090565b60007f780e9d63000000000000000000000000000000000000000000000000000000007bffffffffffffffffffffffffffffffffffffffffffffffffffffffff1916827bffffffffffffffffffffffffffffffffffffffffffffffffffffffff19161480610e295750610e288261171e565b5b9050919050565b60008073ffffffffffffffffffffffffffffffffffffffff166002600084815260200190815260200160002060009054906101000a900473ffffffffffffffffffffffffffffffffffffffff1673ffffffffffffffffffffffffffffffffffffffff1614159050919050565b600033905090565b816004600083815260200190815260200160002060006101000a81548173ffffffffffffffffffffffffffffffffffffffff021916908373ffffffffffffffffffffffffffffffffffffffff160217905550808273ffffffffffffffffffffffffffffffffffffffff16610f1783610845565b73ffffffffffffffffffffffffffffffffffffffff167f8c5be1e5ebec7d5bd14f71427d1e84f3dd0314c0f7b2291e5b200ac8c7c3b92560405160405180910390a45050565b600081600001549050919050565b6001816000016000828254019250508190555050565b610f9b828260405180602001604052806000815250611800565b5050565b6000610faa82610e30565b610fe9576040517f08c379a0000000000000000000000000000000000000000000000000000000008152600401610fe090612af2565b60405180910390fd5b6000610ff483610845565b90508073ffffffffffffffffffffffffffffffffffffffff168473ffffffffffffffffffffffffffffffffffffffff16148061106357508373ffffffffffffffffffffffffffffffffffffffff1661104b84610476565b73ffffffffffffffffffffffffffffffffffffffff16145b8061107457506110738185610cdf565b5b91505092915050565b8273ffffffffffffffffffffffffffffffffffffffff1661109d82610845565b73ffffffffffffffffffffffffffffffffffffffff16146110f3576040517f08c379a00000000000000000000000000000000000000000000000000000000081526004016110ea90612bb2565b60405180910390fd5b600073ffffffffffffffffffffffffffffffffffffffff168273ffffffffffffffffffffffffffffffffffffffff161415611163576040517f08c379a000000000000000000000000000000000000000000000000000000000815260040161115a90612ab2565b60405180910390fd5b61116e83838361185b565b611179600082610ea4565b6001600360008573ffffffffffffffffffffffffffffffffffffffff1673ffffffffffffffffffffffffffffffffffffffff16815260200190815260200160002060008282546111c99190612dfc565b925050819055506001600360008473ffffffffffffffffffffffffffffffffffffffff1673ffffffffffffffffffffffffffffffffffffffff16815260200190815260200160002060008282546112209190612d1b565b92505081905550816002600083815260200190815260200160002060006101000a81548173ffffffffffffffffffffffffffffffffffffffff021916908373ffffffffffffffffffffffffffffffffffffffff160217905550808273ffffffffffffffffffffffffffffffffffffffff168473ffffffffffffffffffffffffffffffffffffffff167fddf252ad1be2c89b69c2b068fc378daa952ba7f163c4a11628f55a4df523b3ef60405160405180910390a4505050565b6112e484848461107d565b6112f08484848461186b565b61132f576040517f08c379a000000000000000000000000000000000000000000000000000000000815260040161132690612a72565b60405180910390fd5b50505050565b6060600082141561137d576040518060400160405280600181526020017f300000000000000000000000000000000000000000000000000000000000000081525090506114dd565b600082905060005b600082146113af57808061139890612f49565b915050600a826113a89190612d71565b9150611385565b60008167ffffffffffffffff8111156113f1577f4e487b7100000000000000000000000000000000000000000000000000000000600052604160045260246000fd5b6040519080825280601f01601f1916602001820160405280156114235781602001600182028036833780820191505090505b5090505b600085146114d65760018261143c9190612dfc565b9150600a8561144b9190612fb6565b60306114579190612d1b565b60f81b818381518110611493577f4e487b7100000000000000000000000000000000000000000000000000000000600052603260045260246000fd5b60200101907effffffffffffffffffffffffffffffffffffffffffffffffffffffffffffff1916908160001a905350600a856114cf9190612d71565b9450611427565b8093505050505b919050565b606060008251141561150557604051806020016040528060008152509050611688565b600060405180606001604052806040815260200161375960409139905060006003600285516115349190612d1b565b61153e9190612d71565b600461154a9190612da2565b9050600060208261155b9190612d1b565b67ffffffffffffffff81111561159a577f4e487b7100000000000000000000000000000000000000000000000000000000600052604160045260246000fd5b6040519080825280601f01601f1916602001820160405280156115cc5781602001600182028036833780820191505090505b509050818152600183018586518101602084015b81831015611647576003830192508251603f8160121c1685015160f81b8252600182019150603f81600c1c1685015160f81b8252600182019150603f8160061c1685015160f81b8252600182019150603f811685015160f81b8252600182019150506115e0565b60038951066001811461166157600281146116715761167c565b613d3d60f01b600283035261167c565b603d60f81b60018303525b50505050508093505050505b919050565b60606040518060400160405280601981526020017f68747470733a2f2f6170692e7469636b65745365612e696f2f00000000000000815250905090565b606080600c60009054906101000a900473ffffffffffffffffffffffffffffffffffffffff16600d600e60405160200161170693929190612916565b60405160208183030381529060405290508091505090565b60007f80ac58cd000000000000000000000000000000000000000000000000000000007bffffffffffffffffffffffffffffffffffffffffffffffffffffffff1916827bffffffffffffffffffffffffffffffffffffffffffffffffffffffff191614806117e957507f5b5e139f000000000000000000000000000000000000000000000000000000007bffffffffffffffffffffffffffffffffffffffffffffffffffffffff1916827bffffffffffffffffffffffffffffffffffffffffffffffffffffffff1916145b806117f957506117f882611a02565b5b9050919050565b61180a8383611a6c565b611817600084848461186b565b611856576040517f08c379a000000000000000000000000000000000000000000000000000000000815260040161184d90612a72565b60405180910390fd5b505050565b611866838383611c3a565b505050565b600061188c8473ffffffffffffffffffffffffffffffffffffffff16611d4e565b156119f5578373ffffffffffffffffffffffffffffffffffffffff1663150b7a026118b5610e9c565b8786866040518563ffffffff1660e01b81526004016118d794939291906129a9565b602060405180830381600087803b1580156118f157600080fd5b505af192505050801561192257506040513d601f19601f8201168201806040525081019061191f919061237f565b60015b6119a5573d8060008114611952576040519150601f19603f3d011682016040523d82523d6000602084013e611957565b606091505b5060008151141561199d576040517f08c379a000000000000000000000000000000000000000000000000000000000815260040161199490612a72565b60405180910390fd5b805181602001fd5b63150b7a0260e01b7bffffffffffffffffffffffffffffffffffffffffffffffffffffffff1916817bffffffffffffffffffffffffffffffffffffffffffffffffffffffff1916149150506119fa565b600190505b949350505050565b60007f01ffc9a7000000000000000000000000000000000000000000000000000000007bffffffffffffffffffffffffffffffffffffffffffffffffffffffff1916827bffffffffffffffffffffffffffffffffffffffffffffffffffffffff1916149050919050565b600073ffffffffffffffffffffffffffffffffffffffff168273ffffffffffffffffffffffffffffffffffffffff161415611adc576040517f08c379a0000000000000000000000000000000000000000000000000000000008152600401611ad390612b72565b60405180910390fd5b611ae581610e30565b15611b25576040517f08c379a0000000000000000000000000000000000000000000000000000000008152600401611b1c90612a92565b60405180910390fd5b611b316000838361185b565b6001600360008473ffffffffffffffffffffffffffffffffffffffff1673ffffffffffffffffffffffffffffffffffffffff1681526020019081526020016000206000828254611b819190612d1b565b92505081905550816002600083815260200190815260200160002060006101000a81548173ffffffffffffffffffffffffffffffffffffffff021916908373ffffffffffffffffffffffffffffffffffffffff160217905550808273ffffffffffffffffffffffffffffffffffffffff16600073ffffffffffffffffffffffffffffffffffffffff167fddf252ad1be2c89b69c2b068fc378daa952ba7f163c4a11628f55a4df523b3ef60405160405180910390a45050565b611c45838383611d61565b600073ffffffffffffffffffffffffffffffffffffffff168373ffffffffffffffffffffffffffffffffffffffff161415611c8857611c8381611d66565b611cc7565b8173ffffffffffffffffffffffffffffffffffffffff168373ffffffffffffffffffffffffffffffffffffffff1614611cc657611cc58382611daf565b5b5b600073ffffffffffffffffffffffffffffffffffffffff168273ffffffffffffffffffffffffffffffffffffffff161415611d0a57611d0581611f1c565b611d49565b8273ffffffffffffffffffffffffffffffffffffffff168273ffffffffffffffffffffffffffffffffffffffff1614611d4857611d47828261205f565b5b5b505050565b600080823b905060008111915050919050565b505050565b6008805490506009600083815260200190815260200160002081905550600881908060018154018082558091505060019003906000526020600020016000909190919091505550565b60006001611dbc846108f7565b611dc69190612dfc565b9050600060076000848152602001908152602001600020549050818114611eab576000600660008673ffffffffffffffffffffffffffffffffffffffff1673ffffffffffffffffffffffffffffffffffffffff168152602001908152602001600020600084815260200190815260200160002054905080600660008773ffffffffffffffffffffffffffffffffffffffff1673ffffffffffffffffffffffffffffffffffffffff168152602001908152602001600020600084815260200190815260200160002081905550816007600083815260200190815260200160002081905550505b6007600084815260200190815260200160002060009055600660008573ffffffffffffffffffffffffffffffffffffffff1673ffffffffffffffffffffffffffffffffffffffff16815260200190815260200160002060008381526020019081526020016000206000905550505050565b60006001600880549050611f309190612dfc565b9050600060096000848152602001908152602001600020549050600060088381548110611f86577f4e487b7100000000000000000000000000000000000000000000000000000000600052603260045260246000fd5b906000526020600020015490508060088381548110611fce577f4e487b7100000000000000000000000000000000000000000000000000000000600052603260045260246000fd5b906000526020600020018190555081600960008381526020019081526020016000208190555060096000858152602001908152602001600020600090556008805480612043577f4e487b7100000000000000000000000000000000000000000000000000000000600052603160045260246000fd5b6001900381819060005260206000200160009055905550505050565b600061206a836108f7565b905081600660008573ffffffffffffffffffffffffffffffffffffffff1673ffffffffffffffffffffffffffffffffffffffff168152602001908152602001600020600083815260200190815260200160002081905550806007600084815260200190815260200160002081905550505050565b60006120f16120ec84612c92565b612c6d565b90508281526020810184848401111561210957600080fd5b612114848285612ea4565b509392505050565b60008135905061212b816136fc565b92915050565b60008135905061214081613713565b92915050565b6000813590506121558161372a565b92915050565b60008151905061216a8161372a565b92915050565b600082601f83011261218157600080fd5b81356121918482602086016120de565b91505092915050565b6000813590506121a981613741565b92915050565b6000602082840312156121c157600080fd5b60006121cf8482850161211c565b91505092915050565b600080604083850312156121eb57600080fd5b60006121f98582860161211c565b925050602061220a8582860161211c565b9150509250929050565b60008060006060848603121561222957600080fd5b60006122378682870161211c565b93505060206122488682870161211c565b92505060406122598682870161219a565b9150509250925092565b6000806000806080858703121561227957600080fd5b60006122878782880161211c565b94505060206122988782880161211c565b93505060406122a98782880161219a565b925050606085013567ffffffffffffffff8111156122c657600080fd5b6122d287828801612170565b91505092959194509250565b600080604083850312156122f157600080fd5b60006122ff8582860161211c565b925050602061231085828601612131565b9150509250929050565b6000806040838503121561232d57600080fd5b600061233b8582860161211c565b925050602061234c8582860161219a565b9150509250929050565b60006020828403121561236857600080fd5b600061237684828501612146565b91505092915050565b60006020828403121561239157600080fd5b600061239f8482850161215b565b91505092915050565b6000602082840312156123ba57600080fd5b60006123c88482850161219a565b91505092915050565b6123da81612e30565b82525050565b6123f16123ec82612e30565b612f92565b82525050565b61240081612e42565b82525050565b600061241182612cd8565b61241b8185612cee565b935061242b818560208601612eb3565b612434816130a3565b840191505092915050565b600061244a82612ce3565b6124548185612cff565b9350612464818560208601612eb3565b61246d816130a3565b840191505092915050565b600061248382612ce3565b61248d8185612d10565b935061249d818560208601612eb3565b80840191505092915050565b600081546124b681612ee6565b6124c08186612d10565b945060018216600081146124db57600181146124ec5761251f565b60ff1983168652818601935061251f565b6124f585612cc3565b60005b83811015612517578154818901526001820191506020810190506124f8565b838801955050505b50505092915050565b6000612535601c83612cff565b9150612540826130c1565b602082019050919050565b6000612558602b83612cff565b9150612563826130ea565b604082019050919050565b600061257b603283612cff565b915061258682613139565b604082019050919050565b600061259e604383612d10565b91506125a982613188565b604382019050919050565b60006125c1601c83612cff565b91506125cc826131fd565b602082019050919050565b60006125e4602483612cff565b91506125ef82613226565b604082019050919050565b6000612607601983612cff565b915061261282613275565b602082019050919050565b600061262a602c83612cff565b91506126358261329e565b604082019050919050565b600061264d600b83612d10565b9150612658826132ed565b600b82019050919050565b6000612670600183612d10565b915061267b82613316565b600182019050919050565b6000612693603883612cff565b915061269e8261333f565b604082019050919050565b60006126b6602a83612cff565b91506126c18261338e565b604082019050919050565b60006126d9602983612cff565b91506126e4826133dd565b604082019050919050565b60006126fc600283612d10565b91506127078261342c565b600282019050919050565b600061271f600e83612d10565b915061272a82613455565b600e82019050919050565b6000612742602083612cff565b915061274d8261347e565b602082019050919050565b6000612765602c83612cff565b9150612770826134a7565b604082019050919050565b6000612788601583612d10565b9150612793826134f6565b601582019050919050565b60006127ab602983612cff565b91506127b68261351f565b604082019050919050565b60006127ce602f83612cff565b91506127d98261356e565b604082019050919050565b60006127f1600a83612d10565b91506127fc826135bd565b600a82019050919050565b6000612814602183612cff565b915061281f826135e6565b604082019050919050565b6000612837601d83612d10565b915061284282613635565b601d82019050919050565b600061285a603183612cff565b91506128658261365e565b604082019050919050565b600061287d602c83612cff565b9150612888826136ad565b604082019050919050565b61289c81612e9a565b82525050565b60006128ae8285612478565b91506128b982612663565b91506128c58284612478565b91508190509392505050565b60006128dc8261277b565b91506128e88285612478565b91506128f382612591565b91506128ff8284612478565b915061290a826126ef565b91508190509392505050565b6000612921826127e4565b915061292d82866123e0565b60148201915061293c82612640565b915061294882856124a9565b915061295382612712565b915061295f82846124a9565b9150819050949350505050565b60006129778261282a565b91506129838284612478565b915081905092915050565b60006020820190506129a360008301846123d1565b92915050565b60006080820190506129be60008301876123d1565b6129cb60208301866123d1565b6129d86040830185612893565b81810360608301526129ea8184612406565b905095945050505050565b6000602082019050612a0a60008301846123f7565b92915050565b60006020820190508181036000830152612a2a818461243f565b905092915050565b60006020820190508181036000830152612a4b81612528565b9050919050565b60006020820190508181036000830152612a6b8161254b565b9050919050565b60006020820190508181036000830152612a8b8161256e565b9050919050565b60006020820190508181036000830152612aab816125b4565b9050919050565b60006020820190508181036000830152612acb816125d7565b9050919050565b60006020820190508181036000830152612aeb816125fa565b9050919050565b60006020820190508181036000830152612b0b8161261d565b9050919050565b60006020820190508181036000830152612b2b81612686565b9050919050565b60006020820190508181036000830152612b4b816126a9565b9050919050565b60006020820190508181036000830152612b6b816126cc565b9050919050565b60006020820190508181036000830152612b8b81612735565b9050919050565b60006020820190508181036000830152612bab81612758565b9050919050565b60006020820190508181036000830152612bcb8161279e565b9050919050565b60006020820190508181036000830152612beb816127c1565b9050919050565b60006020820190508181036000830152612c0b81612807565b9050919050565b60006020820190508181036000830152612c2b8161284d565b9050919050565b60006020820190508181036000830152612c4b81612870565b9050919050565b6000602082019050612c676000830184612893565b92915050565b6000612c77612c88565b9050612c838282612f18565b919050565b6000604051905090565b600067ffffffffffffffff821115612cad57612cac613074565b5b612cb6826130a3565b9050602081019050919050565b60008190508160005260206000209050919050565b600081519050919050565b600081519050919050565b600082825260208201905092915050565b600082825260208201905092915050565b600081905092915050565b6000612d2682612e9a565b9150612d3183612e9a565b9250827fffffffffffffffffffffffffffffffffffffffffffffffffffffffffffffffff03821115612d6657612d65612fe7565b5b828201905092915050565b6000612d7c82612e9a565b9150612d8783612e9a565b925082612d9757612d96613016565b5b828204905092915050565b6000612dad82612e9a565b9150612db883612e9a565b9250817fffffffffffffffffffffffffffffffffffffffffffffffffffffffffffffffff0483118215151615612df157612df0612fe7565b5b828202905092915050565b6000612e0782612e9a565b9150612e1283612e9a565b925082821015612e2557612e24612fe7565b5b828203905092915050565b6000612e3b82612e7a565b9050919050565b60008115159050919050565b60007fffffffff0000000000000000000000000000000000000000000000000000000082169050919050565b600073ffffffffffffffffffffffffffffffffffffffff82169050919050565b6000819050919050565b82818337600083830152505050565b60005b83811015612ed1578082015181840152602081019050612eb6565b83811115612ee0576000848401525b50505050565b60006002820490506001821680612efe57607f821691505b60208210811415612f1257612f11613045565b5b50919050565b612f21826130a3565b810181811067ffffffffffffffff82111715612f4057612f3f613074565b5b80604052505050565b6000612f5482612e9a565b91507fffffffffffffffffffffffffffffffffffffffffffffffffffffffffffffffff821415612f8757612f86612fe7565b5b600182019050919050565b6000612f9d82612fa4565b9050919050565b6000612faf826130b4565b9050919050565b6000612fc182612e9a565b9150612fcc83612e9a565b925082612fdc57612fdb613016565b5b828206905092915050565b7f4e487b7100000000000000000000000000000000000000000000000000000000600052601160045260246000fd5b7f4e487b7100000000000000000000000000000000000000000000000000000000600052601260045260246000fd5b7f4e487b7100000000000000000000000000000000000000000000000000000000600052602260045260246000fd5b7f4e487b7100000000000000000000000000000000000000000000000000000000600052604160045260246000fd5b6000601f19601f8301169050919050565b60008160601b9050919050565b7f546865726520617265206e6f205469636b657473206c656674203a2800000000600082015250565b7f455243373231456e756d657261626c653a206f776e657220696e646578206f7560008201527f74206f6620626f756e6473000000000000000000000000000000000000000000602082015250565b7f4552433732313a207472616e7366657220746f206e6f6e20455243373231526560008201527f63656976657220696d706c656d656e7465720000000000000000000000000000602082015250565b7f222c20226465736372697074696f6e223a20225469636b65745365612070726f60008201527f76696465207469636b657420666f72206576656e7473222c2022696d6167652260208201527f3a20220000000000000000000000000000000000000000000000000000000000604082015250565b7f4552433732313a20746f6b656e20616c7265616479206d696e74656400000000600082015250565b7f4552433732313a207472616e7366657220746f20746865207a65726f2061646460008201527f7265737300000000000000000000000000000000000000000000000000000000602082015250565b7f4552433732313a20617070726f766520746f2063616c6c657200000000000000600082015250565b7f4552433732313a206f70657261746f7220717565727920666f72206e6f6e657860008201527f697374656e7420746f6b656e0000000000000000000000000000000000000000602082015250565b7f266576656e744e616d653d000000000000000000000000000000000000000000600082015250565b7f3f00000000000000000000000000000000000000000000000000000000000000600082015250565b7f4552433732313a20617070726f76652063616c6c6572206973206e6f74206f7760008201527f6e6572206e6f7220617070726f76656420666f7220616c6c0000000000000000602082015250565b7f4552433732313a2062616c616e636520717565727920666f7220746865207a6560008201527f726f206164647265737300000000000000000000000000000000000000000000602082015250565b7f4552433732313a206f776e657220717565727920666f72206e6f6e657869737460008201527f656e7420746f6b656e0000000000000000000000000000000000000000000000602082015250565b7f227d000000000000000000000000000000000000000000000000000000000000600082015250565b7f267469636b6574526566436f643d000000000000000000000000000000000000600082015250565b7f4552433732313a206d696e7420746f20746865207a65726f2061646472657373600082015250565b7f4552433732313a20617070726f76656420717565727920666f72206e6f6e657860008201527f697374656e7420746f6b656e0000000000000000000000000000000000000000602082015250565b7f7b226e616d65223a20225469636b657453656120230000000000000000000000600082015250565b7f4552433732313a207472616e73666572206f6620746f6b656e2074686174206960008201527f73206e6f74206f776e0000000000000000000000000000000000000000000000602082015250565b7f4552433732314d657461646174613a2055524920717565727920666f72206e6f60008201527f6e6578697374656e7420746f6b656e0000000000000000000000000000000000602082015250565b7f6576656e744f776e657200000000000000000000000000000000000000000000600082015250565b7f4552433732313a20617070726f76616c20746f2063757272656e74206f776e6560008201527f7200000000000000000000000000000000000000000000000000000000000000602082015250565b7f646174613a6170706c69636174696f6e2f6a736f6e3b6261736536342c000000600082015250565b7f4552433732313a207472616e736665722063616c6c6572206973206e6f74206f60008201527f776e6572206e6f7220617070726f766564000000000000000000000000000000602082015250565b7f455243373231456e756d657261626c653a20676c6f62616c20696e646578206f60008201527f7574206f6620626f756e64730000000000000000000000000000000000000000602082015250565b61370581612e30565b811461371057600080fd5b50565b61371c81612e42565b811461372757600080fd5b50565b61373381612e4e565b811461373e57600080fd5b50565b61374a81612e9a565b811461375557600080fd5b5056fe4142434445464748494a4b4c4d4e4f505152535455565758595a6162636465666768696a6b6c6d6e6f707172737475767778797a303132333435363738392b2fa2646970667358221220cd6dfc4c179c942a665941600732580482d16587d07cfaa30724cfe159db798864736f6c63430008040033",
  "linkReferences": {},
  "deployedLinkReferences": {}
}